:020000040800F2
:10000000A01800203DCE0008B501000847CE00082A
:10001000B7010008BB010008BF0100080000000094
:10002000000000000000000000000000C301000804
:10003000C50100080000000053CE0008C7010008F9
:1000400057CE000857CE000857CE000857CE0008FC
:1000500057CE000857CE000857CE000857CE0008EC
:1000600057CE000857CE000857CE000857CE0008DC
:1000700057CE000857CE000857CE000857CE0008CC
:1000800057CE000857CE000857CE000857CE0008BC
:1000900057CE000857CE000857CE000857CE0008AC
:1000A00057CE000857CE000857CE000857CE00089C
:1000B00057CE0008D9010008E101000857CE00081A
:1000C00057CE000857CE000857CE000857CE00087C
:1000D00057CE000857CE0008E901000857CE0008A7
:1000E00057CE000857CE000857CE000857CE00085C
:1000F00057CE000857CE000857CE000857CE00084C
:1001000057CE000857CE000857CE000857CE00083B
:1001100057CE0008F101000857CE000857CE00085E
:1001200057CE000857CE000857CE000857CE00081B
:1001300057CE000857CE000857CE000857CE00080B
:1001400057CE000857CE000857CE000857CE0008FB
:1001500057CE000857CE000857CE000857CE0008EB
:1001600057CE000857CE000857CE000857CE0008DB
:1001700057CE000857CE000857CE000857CE0008CB
:1001800057CE000857CE0008DFF80CD00DF028F944
:1001900000480047A1010008A018002000BFFEE7AA
:1001A00000F048F90249087001E000F0ECF8FCE7C3
:1001B00000000020704700BFFEE700BFFEE700BF61
:1001C000FEE77047704710B50B480068401C0A49AD
:1001D000086005F013F810BD10B505F006FA10BD63
:1001E00010B505F009FB10BD10B506F0B6FE10BD48
:1001F00010B506F074FF10BD740500208348C08957
:10020000401C8249C88108468088401C00B2888012
:100210000846C088401C00B2C88008460089401CBF
:1002200000B2088108464089401C00B24881084657
:100230008089401C00B2888108460078012804D1DA
:1002400008464078401C487002E001206F49087061
:10025000704710B5012005F010F803F050FC10BDF8
:1002600010B52DED028B002005F007F8B0EE408AA6
:1002700004F094FF00EE100AB8EE400ADFED640AC5
:1002800080EE201A634880ED001A05F047FFB0EEBB
:10029000480A06F079F9B0EE480A01F007F85E481E
:1002A000B0EE480A02F059FB04F078FF00EE100AA5
:1002B000B8EE400ADFED560A80EE201A554880ED70
:1002C000011ABDEC028B10BD10B52DED028B022082
:1002D00004F0D3FFB0EE408A04F060FF00EE100A95
:1002E000B8EE400ADFED4A0A80EE201A494880ED58
:1002F000021A4A48D0ED063AB0EE633AD0ED053A1C
:10030000F0EE632AD0ED043AB0EE632AD0ED0C3A59
:10031000F0EE631AD0ED0B3AB0EE631AD0ED0A3A64
:10032000F0EE630AF6EE003A68EE233AB0EE630AA6
:100330003B4A3C493C4801F06BFBB0EE480A00F0F8
:1003400069FA04F02BFF00EE100AB8EE400ADFED68
:10035000300A80EE201A2F4880ED031ABDEC028B84
:1003600010BD10B506F03EFD10BD10B500F00BFA43
:1003700010BD10B506F055FD06F018FF04F0BBFCEB
:1003800004F065FC10BD10B52048007801283BD171
:100390002648008800B226490880FFF75AFF1B480C
:1003A000B0F90400022804DB002018498880FFF718
:1003B00057FF1648B0F90600052804DB0020134952
:1003C000C880FFF781FF1148B0F908000A2804DB54
:1003D00000200E490881FFF7C4FF0C48B0F90A005D
:1003E000142804DB002009494881FFF7BEFF0748B5
:1003F000B0F90C00322804DB002004498881FFF7A3
:10040000B8FF00200149087010BD00005C06002004
:10041000002474496C060020000C0020100C002001
:10042000300000202C00002028000020840500203F
:100430001000002010B54FF4806006F013FF04F0A8
:100440007BFE05F0ACFC04F073FF4FF4C87005F0C0
:10045000D1FAC82004F0C6FE142005F041FF06F0D2
:10046000C7FC4FF4E13006F005FD00F00DF9642003
:1004700004F0B8FE06F094FE04F03AFF06F08CFAA1
:1004800080F00100074908700748007810B906F0AD
:10049000DEFC04E00348007808B906F0DFFC012028
:1004A00010BD0000F8050020B005002010B5C148BF
:1004B000C14BD3E900219B68C0E90E134263BE4BD8
:1004C000D3E903215B69C0E911130264BB48BA4B4D
:1004D00018330ECB08300EC0B64AB74B24330BCBC3
:1004E00058320BC2B44890ED0D0AB24880ED190A9B
:1004F000B14890ED0E0AAF4880ED1A0AB048B14CF1
:100500001ECC54301EC06438AE49D1E905340A69A6
:10051000C969C0E91A3442660167AA4BD3E90914D4
:100520001A6ADB6AC0E91F43C0E91D21A648A54B32
:10053000D3E90C41D3E90E23C0E91541C0E91723E3
:10054000A049D1E911430A6CC96CC0E91A4342665B
:1005500001679C49D1E91434D1E91621C0E91D3461
:10056000C0E91F2110BD10B500F042F904F06CFC89
:1005700010BD10B59FED950A924880ED040A9FEDDD
:10058000930A80ED000A9FED920A80ED080A9FED24
:10059000910A80ED060A9FED8F0A80ED020AB7EE00
:1005A000000A80ED0A0AB0EE000A80ED050AB0EEFE
:1005B000000A80ED010AB7EE000A80ED090AB7EEE5
:1005C000000A80ED070AB7EE000A80ED030AB7EED5
:1005D000000A80ED0B0AB6EE000A80ED100AB6EEB6
:1005E000000A80ED0C0A9FED7C0A80ED140A9FED55
:1005F0007B0A80ED120A9FED790A80ED0E0A9FEDCD
:10060000770A80ED160A9FED760A80ED110A9FEDBC
:10061000740A80ED0D0A9FED6F0A80ED150A9FEDBB
:10062000710A80ED200A9FED6F0A80ED220A9FED8E
:100630006D0A80ED210A9FED6B0A80ED240A9FED83
:10064000690A80ED260A9FED670A80ED250AB7EE5C
:10065000000A80ED180AB7EE000A80ED1A0AB7EE1C
:10066000000A80ED190A9FED5F0A80ED1C0A9FEDDC
:100670005D0A80ED1E0A9FED5B0A80ED1D0AFFF703
:1006800015FFFFF770FF10BD10B5FFF772FFFFF702
:100690000DFFFFF768FF10BD10B5464990E81C003C
:1006A00034311CC1444990E81C001CC1414991ED02
:1006B000190A414981ED0D0A10BD10B53D4990E878
:1006C0001C0040311CC13C4990E81C000C311CC18D
:1006D000384991ED1A0A384981ED0E0A10BD10B55E
:1006E000364990E81C0008311CC1334990E81C00D1
:1006F00018311CC110BD10B52E4990E81C005831AE
:100700001CC12D4990E81C0024311CC110BD10B53E
:100710002C482B49D1E916344A6D096E80E81C003B
:10072000C16001462648D0E91A34426E006FC1E923
:1007300005340A61C8612248D0E91E34426FD0F8FE
:100740008000C1E909340A62C8620A461E4CD4E935
:100750001530D4E91714C2E90E14C2E90C30104662
:100760001949D1E91942D1E91B31C0E91042C0E968
:1007700012311549D1E91D42D1E91F31C0E91442B6
:10078000C0E9163110BD00B51748008820B11648E1
:100790000088401C14490880134800883C2807DD65
:1007A0000020114908801148007808B9FFF7AFFF11
:1007B00000BD0000100C002080060020CC050020A9
:1007C00080070020C006002044080020CDCC4C3F0C
:1007D0009A99993FCDCCCC3DCDCC4C3ECDCC4C3D27
:1007E0009A99993E00000000B8040020A40400205B
:1007F000B7EE000AFE4880ED180AB7EE000A80ED59
:100800001C0AB7EE000A80ED200A9FEDFA0A80ED7F
:10081000300A704710B52DED0E8BB0EE408AF648C9
:10082000D0ED000AB0EE600AF3EE0E0A01F061FFAF
:10083000DFEDF20A80EE201AB3EE090A21EE000A7B
:10084000EF4880ED000AEC48D0ED010AF1EE600AB5
:10085000B0EE600AF3EE0E0A01F04BFFDFEDE70A9F
:1008600080EE201AB3EE090A21EE000AE44880ED7A
:10087000010AE448007808BBDF48D0ED030AB0EE77
:10088000600ADFEDE10A01F083FFDFEDDC0A80EEB4
:10089000201A9FEDDE0A21EE000ABDEEC00A10EE1E
:1008A000100A00B200EE100AF8EEC00AD44890ED2B
:1008B000020A00EE880A80ED020A36E0D04890ED88
:1008C000020AD348D0ED000A30EEC00A10EE101A2A
:1008D00008460CF001FC41EC1C0B18EE100A0CF061
:1008E000FBFB41EC1E0B9FEDCB0B53EC102B0CF0E4
:1008F00070FB41EC1D0B53EC1C2B0CF06AFB41EC24
:100900001A0BBF4890ED020A10EE101A08460CF0C0
:10091000E3FB41EC1B0B53EC1A2B0CF0B3FA41EC4C
:10092000190B0CF01DFCB6498860B548D0ED020AE1
:10093000B0EE600A01F040FFB14880ED020AB7480E
:10094000D0ED000AAE4890ED001A70EE810AB4486E
:1009500090ED001A70EEC10AB0EE600A01F02CFFB3
:10096000B04880ED000AAD48D0ED010AA44890EDF2
:10097000011A70EE810AAC4890ED001A70EEC10ABF
:10098000B0EE600A01F018FFA64880ED010AA34806
:10099000D0ED020A9A4890ED021A70EE810A9C4846
:1009A00090ED001A70EEC10AB0EE600A01F004FF8B
:1009B0009C4880ED020A90ED000AB5EEC00AF1EE07
:1009C00010FA02DD90ED000A04E0964890ED000A6E
:1009D000B1EE400AF3EE0E0A80EE201A914880ED47
:1009E0002D1A90ED010AB5EEC00AF1EE10FA02DD03
:1009F00090ED010A04E08B4890ED010AB1EE400A47
:100A0000F3EE0E0A80EE201A864880ED2E1A90ED45
:100A1000020AB5EEC00AF1EE10FA02DD90ED020A0C
:100A200004E0804890ED020AB1EE400AF3EE0E0AAF
:100A300080EE201A7B4880ED2F1ADFED7C0A80EED5
:100A4000880AD0ED000A90ED031A70EEC10A90ED0D
:100A5000161AF2EE041A21EE211A60EE810A60EEF7
:100A6000200A90ED2D1A9FED720ADFED721A01EE49
:100A7000810A20EE800A80ED0C0ADFED6C0A80EE20
:100A8000880AD0ED010A90ED041A70EEC10A90EDCB
:100A90001A1AF2EE041A21EE211A60EE810A60EEB3
:100AA000200A90ED2E1A9FED620ADFED621A01EE28
:100AB000810A20EE800A80ED0D0ADFED5C0A80EEEF
:100AC000880AD0ED020A90ED051A70EEC10A90ED89
:100AD0001E1AF2EE041A21EE211A60EE810A60EE6F
:100AE000200A90ED2F1A9FED520ADFED521A01EE07
:100AF000810A20EE800A80ED0E0A90ED170AD0EDF3
:100B0000000A60EE200A90ED060A00EE880A80EDE9
:100B1000060A90ED1B0AD0ED010A60EE200A90ED66
:100B2000070A00EE880A80ED070A90ED1F0AD0ED53
:100B3000020A60EE200A90ED080A00EE880A80EDB5
:100B4000080A3D4890ED000AF6EE000A20EE200A61
:100B5000F3EE090A20EE200A324880ED090A3648F1
:100B600090ED000AF6EE000A20EE200AF3EE090AE4
:100B700020EE200A2B4880ED0A0A2F4890ED000A4B
:100B8000F6EE000A20EE200AF3EE090A20EE200A13
:100B9000244880ED0B0A90ED060AD0ED090AF1EE2B
:100BA000600AB4EEE00AF1EE10FA04D290ED090A00
:100BB000B1EE400A0FE01B4890ED060AD0ED090A9D
:100BC000B4EEE00AF1EE10FA02DD90ED090A02E05F
:100BD000144890ED060A134880ED060A90ED070AC6
:100BE000D0ED0A0AF1EE600AB4EEE00A26E0000059
:100BF00080070020CDCC4C3E140A00200000FA43B0
:100C000008090020180000200000204200001643C0
:100C1000300000201F85EB51B81E09401409002048
:100C200028000020440800202C0000200AD7A33B05
:100C30006666263F3333B33E1C000020F1EE10FA07
:100C400004D290ED0A0AB1EE400A0FE0FC4890EDA4
:100C5000070AD0ED0A0AB4EEE00AF1EE10FA02DD5E
:100C600090ED0A0A02E0F64890ED070AF44880ED9C
:100C7000070A90ED080AD0ED0B0AF1EE600AB4EE17
:100C8000E00AF1EE10FA04D290ED0B0AB1EE400A40
:100C90000FE0EB4890ED080AD0ED0B0AB4EEE00A45
:100CA000F1EE10FA02DD90ED0B0A02E0E44890ED5F
:100CB000080AE34880ED080A90ED000ADFEDE10A3A
:100CC000B4EEE00AF1EE10FA02D29FEDDE0A0FE078
:100CD000DB4890ED000ADFEDDC0AB4EEE00AF1EE4D
:100CE00010FA02DD9FEDD80A02E0D54890ED000A27
:100CF000D34880ED000A90ED010ADFEDD20AB4EE90
:100D0000E00AF1EE10FA02D29FEDCE0A0FE0CC48D5
:100D100090ED010ADFEDCC0AB4EEE00AF1EE10FA34
:100D200002DD9FEDC90A02E0C54890ED010AC44802
:100D300080ED010A90ED020ADFEDC20AB4EEE00A8E
:100D4000F1EE10FA02D29FEDBF0A0FE0BC4890ED21
:100D5000020ADFEDBD0AB4EEE00AF1EE10FA02DDA0
:100D60009FEDB90A02E0B64890ED020AB44880ED62
:100D7000020A90ED000AD0ED0C0A30EE200AD0ED08
:100D8000060A30EE200AD0ED150A20EE200A80ED8A
:100D9000120A90ED010AD0ED0D0A30EE200AD0EDD6
:100DA000070A30EE200AD0ED190A20EE200A80ED65
:100DB000130A90ED020AD0ED0E0A30EE200AD0EDB3
:100DC000080A30EE200AD0ED1D0A20EE200A80ED40
:100DD000140A90ED000A80ED030A90ED010A80EDFF
:100DE000040A90ED020A80ED050ABDEC0E8B10BDE1
:100DF00010B52DED048B8AB0F0EE408AB0EE609A0B
:100E0000B0EE418A9FED910AB4EEC08AF1EE10FA7D
:100E100002D29FED8E0A0BE09FED8D0AB4EEC08AE0
:100E2000F1EE10FA02DD9FED8A0A01E0B0EE480A09
:100E3000B0EE408AB1EE680A30EE090A30EE080AD8
:100E40008DED040A38EE890A30EE480A8DED050A68
:100E500038EEC90A30EE080A8DED060AB1EE680ACE
:100E600030EE490A30EE480A8DED070A002429E0E9
:100E700004A800EB840090ED000ADFED760AB4EEE2
:100E8000E00AF1EE10FA02D29FED720A13E004A814
:100E900000EB840090ED000ADFED6F0AB4EEE00A8B
:100EA000F1EE10FA02DD9FED6C0A04E004A800EBFD
:100EB000840090ED000A04A800EB840080ED000A95
:100EC000601CC4B2042CD3DB9DED040AB5EEC00A4D
:100ED000F1EE10FA02DD9DED040A03E09DED040A37
:100EE000B1EE400ADFED5D0A60EE200A9FED5A1A6E
:100EF00080EE810ADFED5A0A30EE200ADDED040AA9
:100F000020EE200A8DED000A9DED050AB5EEC00A1F
:100F1000F1EE10FA02DD9DED050A03E09DED050AF4
:100F2000B1EE400ADFED4D0A60EE200A9FED4A1A4D
:100F300080EE810ADFED4A0A30EE200ADDED050A77
:100F400020EE200A8DED010A9DED060AB5EEC00ADD
:100F5000F1EE10FA02DD9DED060A03E09DED060AB2
:100F6000B1EE400ADFED3D0A60EE200A9FED3A1A2D
:100F700080EE810ADFED3A0A30EE200ADDED060A46
:100F800020EE200A8DED020A9DED070AB5EEC00A9B
:100F9000F1EE10FA02DD9DED070A03E09DED070A70
:100FA000B1EE400ADFED2D0A60EE200A9FED2A1A0D
:100FB00080EE810ADFED2A0A30EE200ADDED070A15
:100FC00020EE200A8DED030ADDED000A254890EDA4
:100FD000000A254890ED001A01EE200A234880ED12
:100FE000000ADDED010A1F4890ED000A1E4890ED51
:100FF000001A01EE200A1D4880ED010ADDED020A0B
:10100000184890ED000A184890ED001A01EE200AE9
:10101000164880ED020ADDED030A124890ED000A41
:10102000114890ED001A01EE200A104880ED030AE5
:101030000F48007878B30F48007868BB002447E079
:10104000440800200000B4C20000B4420000C8C33D
:101050000000C84300007AC400007A446666E63E99
:10106000CDCC0C3F140000201C00002054090020AF
:10107000A404002018000020FE4800EB840090ED3E
:10108000000ADFEDFD0AB4EEE00AF1EE10FA04D238
:101090009FEDF90A15E04BE01DE0F64800EB8400F7
:1010A00090ED000A5FED140AB4EEE00AF1EE10FADA
:1010B00002DD1FED170A04E0EE4800EB840090ED1E
:1010C000000AEC4800EB840080ED000A601CC4B20A
:1010D000042CD1DB39E0002427E0E64800EB840053
:1010E00090ED000AB5EEC00AF1EE10FA02D29FEDC3
:1010F000E30A13E0DF4800EB840090ED000A5FEDA7
:101100002A0AB4EEE00AF1EE10FA02DD1FED2E0A13
:1011100004E0D84800EB840090ED000AD54800EBCD
:10112000840080ED000A601CC4B2042CD5DB0CE006
:10113000002408E09FEDD10ACE4800EB840080ED4A
:10114000000A601CC4B2042CF4DBCA4890ED000A0B
:10115000BDEEC00A10EE100A00B2ADF82000C5487E
:1011600090ED010ABDEEC00A10EE100A00B2ADF813
:101170002200C04890ED020ABDEEC00A10EE100A2F
:1011800000B2ADF82400BB4890ED030ABDEEC00AE2
:1011900010EE100A00B2ADF826004FF47A7200216A
:1011A00008A804F096FD0AB0BDEC048B10BD10B584
:1011B0002DED028BB0EE408AB14890ED020ADFEDD2
:1011C000B10A30EE200AB04880ED000A90ED000A26
:1011D0005FED610A80EE201AAC4890ED000A71EED6
:1011E000400A9FEDAB0A28EE001A90ED000A01EECE
:1011F000200A80ED000A90ED000AB5EEC00AF1EE7B
:1012000010FA02D29FED9D0A0FE0A04890ED000A6F
:10121000F7EE000AB4EEE00AF1EE10FA02DDB7EEE6
:10122000000A02E0994890ED000A9A4880ED000A11
:10123000954890ED000ADFED980AB4EEE00AF1EE71
:1012400010FA03D201209549087002E0002093496A
:1012500008708D48D0ED000AB0EE480A03F080FE19
:101260008F4890ED000A8F4880ED000A90ED000A4B
:10127000B5EEC00AF1EE10FA02D29FED800A0FE03F
:10128000884890ED000ADFED880AB4EEE00AF1EE3E
:1012900010FA02DD9FED840A02E0824890ED000A18
:1012A000804880ED000ABDEC028B10BD00B52DED2D
:1012B000028B83B0B0EE408A7C4890ED120AF3EEC8
:1012C0000E0A80EE201A9FED7A0A21EE000A8DEDBB
:1012D000000AD0ED130AB3EE0E1A80EE810ADFED9C
:1012E000740A20EE200A8DED010A90ED140AF3EE47
:1012F0000E0A80EE201A9FED6E0A21EE000A8DED97
:10130000020A9DED000A6B4880ED000A9DED010A7E
:1013100080ED010A9DED020A80ED020A90ED000ABF
:10132000DFED650AB4EEE00AF1EE10FA02D29FEDAD
:10133000620A0FE05F4890ED000ADFED5D0AB4EE4F
:10134000E00AF1EE10FA02DD9FED590A02E0594879
:1013500090ED000A574880ED000A90ED010ADFED9C
:10136000560AB4EEE00AF1EE10FA02D29FED520AEC
:101370000FE0504890ED010ADFED4D0AB4EEE00AAF
:10138000F1EE10FA02DD9FED4A0A02E0494890EDC5
:10139000010A484880ED010A90ED020ADFED460A95
:1013A000B4EEE00AF1EE10FA02D29FED430A0FE02C
:1013B000404890ED020ADFED3E0AB4EEE00AF1EE9D
:1013C00010FA02DD9FED3A0A02E03A4890ED020A77
:1013D000384880ED020ADFED390A80EE880A384885
:1013E000D0ED0A0A374890ED001A70EEC10A20EEDF
:1013F000200A354880ED0F0ADFED300A80EE880ABA
:101400002F48D0ED0B0AF1EE600A2E4890ED011A3C
:1014100070EEC10A20EE200A2B4880ED100ADFEDA5
:10142000270A80EE880A2648D0ED0C0AF1EE600A01
:10143000244890ED021A70EEC10A20EE200A2248DC
:1014400080ED110A1B4890ED000A1D48D0ED0A0AF4
:1014500030EE600AF7EE000A20EE200A1A4880ED0E
:10146000000A144890ED010A1548D0ED0B0A30EE41
:10147000200A2BE05409002000004843000000002F
:10148000140A00200000FA4320000020240000205D
:101490003433FB411C0000200000C842180000202B
:1014A00030050020140000200000484444080020BB
:1014B000000096432C090020000096C36F12033BE6
:1014C000100C00203809002080070020F7EE000AE9
:1014D00020EE200AFE4880ED010AFE4890ED020A47
:1014E000FD48D0ED0C0A30EE200AF7EE000A20EE9F
:1014F000200AF74880ED020A90ED000AB5EEC00A16
:10150000F1EE10FA02DD90ED000A04E0F04890EDF3
:10151000000AB1EE400A5FED1A0A80EE201AEC488C
:1015200080ED2D1A90ED010AB5EEC00AF1EE10FA29
:1015300002DD90ED010A04E0E54890ED010AB1EE0C
:10154000400A5FED250A80EE201AE14880ED2E1A50
:1015500090ED020AB5EEC00AF1EE10FA02DD90ED50
:10156000020A04E0DA4890ED020AB1EE400ADFED2B
:10157000DB0A80EE201AD64880ED2F1A5FED310A83
:1015800080EE880AD0ED160A90ED0F1AFAEE041AD2
:1015900021EE211A60EE810A20EE200A80ED0C0A6D
:1015A0005FED3A0A80EE880AD0ED1A0A90ED101A23
:1015B000FAEE041A21EE211A60EE810A20EE200ACA
:1015C00080ED0D0A5FED430A80EE880AD0ED1E0A19
:1015D00090ED111AFAEE041A21EE211A60EE810A3A
:1015E00020EE200A80ED0E0A90ED000AD0ED0F0AE1
:1015F00030EE600AD0ED170A60EE200A90ED060A80
:1016000000EE880A80ED060A90ED010AD0ED100A7E
:1016100030EE600AD0ED1B0A60EE200A90ED070A5A
:1016200000EE880A80ED070A90ED020AD0ED110A5B
:1016300030EE600AD0ED1F0A60EE200A90ED080A35
:1016400000EE880A80ED080AA54890ED000AF6EE43
:10165000000A20EE200A5FED6A0A20EE200A9C486C
:1016600080ED090A9E4890ED000AF6EE000A20EE91
:10167000200A5FED710A20EE200A954880ED0A0AE3
:10168000974890ED000AF6EE000A20EE200A5FED82
:10169000780A20EE200A8E4880ED0B0A90ED060AAB
:1016A000D0ED090AF1EE600AB4EEE00AF1EE10FAAC
:1016B00004D290ED090AB1EE400A0FE0844890EDA3
:1016C000060AD0ED090AB4EEE00AF1EE10FA02DDE6
:1016D00090ED090A02E07E4890ED060A7C4880ED14
:1016E000060A90ED070AD0ED0A0AF1EE600AB4EEA0
:1016F000E00AF1EE10FA04D290ED0A0AB1EE400AC7
:101700000FE0734890ED070AD0ED0A0AB4EEE00A44
:10171000F1EE10FA02DD90ED0A0A02E06C4890ED5D
:10172000070A6B4880ED070A90ED080AD0ED0B0A16
:10173000F1EE600AB4EEE00AF1EE10FA04D290ED98
:101740000B0AB1EE400A0FE0614890ED080AD0EDB7
:101750000B0AB4EEE00AF1EE10FA02DD90ED0B0A8E
:1017600002E05B4890ED080A594880ED080A90EDC8
:10177000300AF7EE000A30EEC00AD0ED150A20EE6E
:10178000200AD0ED000A90ED0C1A70EE810A90ED5F
:10179000061A70EE810A60EE200A90ED301A514868
:1017A000D0ED2D1A9FED500A9FED502A02EE210A2E
:1017B000B5EEC00AF1EE10FA02D21FEDD00A1BE01E
:1017C0004848D0ED2D1A9FED480A9FED482A02EEB9
:1017D000210AF7EE001AB4EEE10AF1EE10FA02DD8A
:1017E000B7EE000A08E03F48D0ED2D1A9FED3E0A03
:1017F0009FED3E2A02EE210A21EE000A354890EDC7
:10180000001A40EE010AB0EE080A20EE800A3048C5
:1018100080ED120A90ED300AF7EE000A30EEC00AB1
:10182000D0ED190A20EE200AD0ED010A90ED0D1A34
:1018300070EE810A90ED071A70EE810A60EE200AC0
:1018400090ED301A2748D0ED2E1A9FED270A9FED14
:10185000272A02EE210AB5EEC00AF1EE10FA02D2F2
:101860001FEDFA0A1BE01F48D0ED2E1A9FED1E0A4D
:101870009FED1E2A02EE210AF7EE001AB4EEE10AED
:10188000F1EE10FA02DDB7EE000A08E01548D0EDDF
:101890002E1A9FED150A9FED152A02EE210A21EE60
:1018A000000A0C4890ED011A40EE010AB0EE080A59
:1018B00020EE800A064880ED130A90ED300AF7EE1C
:1018C000000A30EEC00AD0ED1D0A20EE200A0FE01B
:1018D000800700202C090020100C00200000164377
:1018E0001C000020440800206666E63ECDCC0C3F7C
:1018F000D0ED020A90ED0E1A70EE810A90ED081AF2
:1019000070EE810A60EE200A90ED301A3A48D0ED70
:101910002F1A1FED0B0A1FED0B2A02EE210AB5EE5E
:10192000C00AF1EE10FA02D29FED340A1BE03248F1
:10193000D0ED2F1A1FED140A1FED142A02EE210A12
:10194000F7EE001AB4EEE10AF1EE10FA02DDB7EE9E
:10195000000A08E02848D0ED2F1A1FED1D0A1FEDE0
:101960001D2A02EE210A21EE000A254890ED021AF6
:1019700040EE010AB0EE080A20EE800A214880ED10
:10198000140AB0EE480AFFF712FC1E48D0ED141AF4
:10199000B0EE611AD0ED131AF0EE610AD0ED121A12
:1019A000B0EE610AFFF724FA164890ED000A80EDC8
:1019B000030A90ED010A80ED040A90ED020A80ED21
:1019C000050A114890ED0A0A104880ED000A0E48F9
:1019D00090ED0B0AB1EE400A0C4880ED010A0A486E
:1019E00090ED0C0AB1EE400A084880ED020A03B0FF
:1019F000BDEC028B00BD0000440800200000000088
:101A00002C09002080070020100C0020380900203D
:101A100070B52DED108BB0EE408AB0EE60EAF0EEBE
:101A200041EAB0EE61FAF0EE429AB0EE629AF0EE60
:101A3000438A04460D4616469FEDFB0A28EE000A2F
:101A4000F3EE040A20EE200AF0EE40AAF748D0EDAB
:101A5000080A60EEA00A90ED091AD0ED091A41EECD
:101A6000210A90ED0A1AD0ED0A1A41EE210AB0EED1
:101A7000600A00F006FDEE4880ED000A90ED000AD5
:101A8000B5EEC00AF1EE10FA38D0E84890ED080A39
:101A9000E748D0ED000A80EE201AE64890ED000AF3
:101AA00071EE400A90ED000A0AEEA00A80ED000AED
:101AB000DE4890ED090ADE48D0ED000A80EE201ADB
:101AC000DC4890ED010A71EE400A90ED010A0AEE41
:101AD000A00A80ED010AD548D0ED0A0AD44890ED5D
:101AE000001A80EE810AD348D0ED020A70EE600A37
:101AF00090ED020A0AEEA00A80ED020ACE4ACD4914
:101B0000CE4802F0E0FFCC48D0ED000A60EEA00A1B
:101B100090ED011AD0ED011A41EE210AB0EE600AF3
:101B200000F0AFFCC64880ED000AC34890ED000A03
:101B3000B5EEC00AF1EE10FA36D090ED010AB5EE1E
:101B4000C00AF1EE10FA2FD090ED020AB5EEC00AED
:101B5000F1EE10FA28D0BA4890ED000AB5EEC00AAE
:101B6000F1EE10FA20D0B44890ED000AB448D0ED60
:101B7000000A80EE201AB0EE41BAAF4890ED010A9B
:101B8000AF48D0ED000A80EE201AF0EE41BAF0EE38
:101B90004B0AB0EE6B0A00F0B4FBDFEDAA0A20EEB0
:101BA000200AA94880ED000AA84890ED010AD0ED6E
:101BB000030A20EE200AD0ED000A90ED021A00EE92
:101BC000C10AF0EE000A20EE200A9C4880ED000ACF
:101BD0009E4890ED000AD0ED010A20EE200AD0EDDB
:101BE000020A90ED031A00EE810AF0EE000A20EEE0
:101BF000200A924880ED010A944890ED010A20EEF7
:101C0000000AD0ED020A90ED021A00EE810AF7EE0A
:101C1000000AB0EE001A41EE400A8848C0ED020A00
:101C200069EEA90A49EE090A48EEA80AB0EE600A70
:101C300000F027FC864880ED000A9FED7B0A28EE25
:101C4000000AF2EE040A60EE200A90ED000A8148D4
:101C500090ED001A30EE411A90ED000A00EE810A74
:101C600080ED000AF5EEC09AF1EE10FA02DDB0EE5A
:101C7000690A01E0B1EE690ADFED770AB4EEE00A25
:101C8000F1EE10FA7DD2B5EEC09AF1EE10FA02DD57
:101C9000B0EE490A01E0B1EE490ADFED6F0AB4EE99
:101CA000E00AF1EE10FA78D2F5EEC08AF1EE10FA01
:101CB00002DDB0EE680A01E0B1EE680ADFED660A07
:101CC000B4EEE00AF1EE10FA67D2614890ED000A36
:101CD000C9EE800AF0EE609A90ED000AC9EE000AA3
:101CE000B0EE609A90ED000AC8EE800AF0EE608ACD
:101CF00090ED000ADFED590AB4EEE00AF1EE10FAB9
:101D000054DD90ED000ADFED540AB4EEE00AF1EE86
:101D100010FA4BD2494890ED020A20EE090AD0EDA4
:101D2000010A08EEE00A4E4880ED030A434890EDB0
:101D3000000A20EE280AD0ED020A09EEE00A48481F
:101D400080ED040A9FED380A28EE000AF7EE000A3B
:101D500020EE20AA90ED030AD0ED060A70EE600A8C
:101D600090ED060A0AEE200A80ED060A90ED040ABC
:101D7000D0ED070A70EE600A90ED070A0AEE200A1D
:101D800000E00AE080ED070A90ED060A80ED000A07
:101D900090ED070A80ED010A08E09FED320A304815
:101DA00080ED000A9FED2F0A80ED010A2C4890ED8E
:101DB000090AD0ED000A9FED2C1A60EE810AB0EE00
:101DC000001A60EE810A00EE880A80ED090A90EDA3
:101DD0000A0AD0ED010A9FED241A60EE810AB0EEE6
:101DE000001A60EE810A00EE880A80ED0A0A90ED82
:101DF0000B0AD0ED020A9FED1C1A60EE810AB0EECC
:101E0000001A60EE810A00EE880A80ED0B0A90ED60
:101E1000090ADFED160AB4EEE00AF1EE10FA27D255
:101E20009FED120A34E00000C3F5C840CC05002045
:101E300054000020D8090020CC090020840900208B
:101E400050000020333365425C0000203400002045
:101E5000440000204C0000200080894500806D4532
:101E60009009002000000000CDCCCC3D34FA0EBD1E
:101E7000FE4890ED090ADFEDFE0AB4EEE00AF1EE4D
:101E800010FA02DD9FEDFA0A02E0F84890ED090A27
:101E9000F64880ED090A90ED0A0A5FED0C0AB4EEEF
:101EA000E00AF1EE10FA02D21FED100A0FE0EF483F
:101EB00090ED0A0ADFEDEE0AB4EEE00AF1EE10FA58
:101EC00002DD9FEDEB0A02E0E84890ED0A0AE748E0
:101ED00080ED0A0A90ED0B0A5FED1C0AB4EEE00AF1
:101EE000F1EE10FA02D21FED1F0A0FE0DF4890ED6D
:101EF0000B0ADFEDDF0AB4EEE00AF1EE10FA02DDC4
:101F00009FEDDB0A02E0D94890ED0B0AD74880ED3F
:101F10000B0AD84890ED020AB5EEC00AF1EE10FAAD
:101F200029DDD548007898B1D448D0ED000AD448CE
:101F300090ED001A70EEC10AB0EE600A00F03CFCB1
:101F4000DFEDD00A20EE200ACF4880ED000A12E033
:101F5000CA48D0ED000ACA4890ED001A70EEC10AD6
:101F6000B0EE600A00F028FCDFEDC80A20EE200A7F
:101F7000C54880ED000ABD4890ED000AD0ED090A81
:101F800030EE200ADFEDC20A20EE200AB94890EDBB
:101F9000001ABD48D0ED001AF0EE4E0A41EE610A7B
:101FA0009FEDBC1A00EE810AB04880ED0C0A90ED5E
:101FB000010AD0ED0A0A30EE200ADFEDB50A20EE64
:101FC000200AAC4890ED011AAF48D0ED001AF0EEAF
:101FD0006E0A41EE610A9FEDAF1A00EE810AA34836
:101FE00080ED0D0AA348D0ED020AA74890ED001A33
:101FF000B0EE4F0A00EEC10ADFEDA60A20EE200A7D
:102000009A4880ED0E0AA44890ED010AB1EE400A0C
:102010009648D0ED0C0A20EE200A9F48D0ED020A27
:10202000924890ED0D1A00EEC10A9B48D0ED030ACC
:102030008E4890ED0E1A00EEC10A9748D0ED000AC6
:1020400040EE080AC0ED000A90ED000A8748D0ED86
:102050000C0A20EE200A9048D0ED020A834890ED49
:102060000E1A00EE810A8C48D0ED030A7F4890EDED
:102070000D1A00EEC10A8848D0ED010A40EE080AA8
:10208000C0ED010A90ED000A7848D0ED0D0A20EE6F
:10209000200A8148D0ED010A744890ED0E1A00EE36
:1020A000C10A7D48D0ED030A704890ED0C1A00EE8D
:1020B000810A7948D0ED020A40EE080AC0ED020A12
:1020C00090ED000A6948D0ED0E0A20EE200A724811
:1020D000D0ED010A654890ED0D1A00EE810A6E48B8
:1020E000D0ED020A614890ED0C1A00EEC10A6A4870
:1020F000D0ED030A40EE080AC0ED030AD0ED000A55
:1021000060EEA00A90ED011AD0ED011A41EE210A0D
:1021100090ED021AD0ED021A41EE210A90ED031A59
:10212000D0ED031A41EE210AB0EE600A00F0A9F9E1
:102130005A4880ED000A584890ED000A5748D0ED03
:10214000000A80EE201A544880ED001A90ED010A32
:102150005248D0ED000A80EE201A4F4880ED011A57
:1021600090ED020A4D48D0ED000A80EE201A4A4850
:1021700080ED021A90ED030A4848D0ED000A80EE87
:10218000201A454880ED031A90ED011A21EE011A3C
:10219000D0ED021A90ED022A01EE821AF7EE001A33
:1021A000B0EE002A42EE411AF0EE610A90ED001AFC
:1021B000D0ED011A21EE211AD0ED021A90ED032A7A
:1021C00001EE821AF0EE001A21EE211AB0EE410A59
:1021D00000F097F85FEDE50A20EE200A84ED000A92
:1021E0002D4890ED010AD0ED030A20EE200AD0ED33
:1021F000000A90ED021A00EEC10AF0EE000A20EE8D
:10220000200A10EE101A08460AF066FF41EC1D0B7A
:10221000B0EE4D0AF0EE6D0A0BF09AF9B0EE40CA3E
:10222000F0EE60CA9FED1E0B53EC102B51EC1C0B13
:102230000AF0CFFE41EC1B0B0AF092FF2860164813
:1022400090ED001A21EE011AD0ED011A90ED012A4D
:1022500001EE821AF7EE001AB0EE002A52EE011AD1
:10226000F0EE610A90ED011A1EE0000090090020D6
:1022700034FA0E3D84090020A40400205C000020F4
:102280003000002090C2F53D580000206766663F90
:102290009A99193F34FA8E3C3400002048000020FF
:1022A0000000006066A64C40B1EE411AD0ED021A63
:1022B00021EE211AD0ED001A90ED032A01EEC21A88
:1022C000F0EE001A21EE211AB0EE410A00F019F8E2
:1022D000DFED040A20EE200A86ED000ABDEC108B2B
:1022E00070BD000033336542F0EE400AF5EEC00ADF
:1022F000F1EE10FA02DBB0EE600A7047B1EE600A50
:10230000FBE700B5B0EE403AB0EE602AB5EEC03A59
:10231000F1EE10FA07D1B5EEC02AF1EE10FA02D1B3
:102320009FEDFD1A99E0B0EE430AFFF7DDFFF0EEF6
:10233000403AB0EE420AFFF7D7FFF0EE402AF4EE43
:10234000E23AF1EE10FA02D283EEA24A01E082EE06
:10235000A34A9FEDF20AB4EEC04AF1EE10FA02D29F
:10236000F0EE441A2DE0DFEDEE0AB6EE000A14EEB0
:10237000200AF0EE404ABDEEE40A10EE100A00EE2C
:10238000100AB8EEC00A34EEC00AF0EE404AE54941
:1023900001EB800191ED000AF0EE401AE14A411C88
:1023A00002EB810191ED000A114601EB8001D1EDB4
:1023B000000A70EE600AB0EE610A00EEA40AF0EEC8
:1023C000401AF4EEE32AF1EE10FA20DDB5EEC02A51
:1023D000F1EE10FA0ADBB5EEC03AF1EE10FA02DBCC
:1023E000B0EE611A39E0B1EE611A36E09FEDCE1A17
:1023F000B5EEC03AF1EE10FA04DB31EE610AB0EE50
:10240000401A2AE031EEC10AB0EE401A25E0B5EEDE
:10241000C03AF1EE10FA10DB9FEDC41AB5EEC02AF7
:10242000F1EE10FA04DB31EE610AB0EE401A14E06E
:1024300031EE210AB0EE401A0FE09FEDBD1AB5EE65
:10244000C02AF1EE10FA04DB31EE210AB0EE401A98
:1024500003E031EE610AB0EE401AB0EE410A00BD71
:1024600000B5B0EE405AF0EE605AF0EE450AB0EE1C
:10247000650AFFF746FF00BDF0EE400A20EEA00A15
:102480007047B0EE401AB7EE080AB0EE402AB6EE3A
:10249000000A21EE000AF0EE401AF0EE410A10EEBA
:1024A000900AA449A1EB600000EE900A61EEA02A18
:1024B000B7EE080A02EEE00A20EE200AF0EE400A2B
:1024C00061EEA02AB7EE080A02EEE00A20EE200A2A
:1024D000F0EE400A21EE200A704710B52DED0A8B70
:1024E000B0EE409AF0EE609A9FED930B53EC102BF8
:1024F00051EC190B0AF004FE18D29FED910B53EC2E
:10250000102B51EC190B0AF064FD41EC1B0B9FEDF5
:102510008E0B53EC102B0AF0B5FC41EC1A0B53EC6C
:10252000192B0AF056FD41EC180B17E09FED840BB8
:1025300053EC102B51EC190B0AF04BFD41EC1B0B2B
:102540009FED810B53EC102B0AF040FD41EC1A0B70
:1025500053EC192B0AF03DFD41EC180B9FED760B67
:1025600053EC102B51EC180B0AF0CAFD20D29FED52
:10257000780B53EC102B51EC180B0AF083FC41EC58
:102580001C0B9FED750B53EC102B0AF022FD41EC58
:102590001B0B9FED6F0B53EC102B0AF073FC41ECFF
:1025A0001A0B53EC182B0AF014FD41EC180B1FE02A
:1025B0009FED670B53EC102B51EC180B0AF003FD49
:1025C00041EC1C0B9FED660B53EC102B0AF001FD48
:1025D00041EC1B0B9FED5E0B53EC102B0AF052FCF1
:1025E00041EC1A0B53EC182B0AF0F3FC41EC180BDE
:1025F000B0EE480AF0EE680ABDEC0A8B10BD10B5CB
:102600002DED068BB0EE408AF0EE608A01249FED3E
:10261000560B53EC102B51EC180B0AF089FD0AD81D
:102620009FED510B53EC102B51EC180B0AF0CBFC27
:1026300041EC180BA41E20460AF03DFD41EC190B9D
:10264000B0EE480AF0EE680AFFF747FFB0EE40AA86
:10265000F0EE60AA53EC192B51EC1A0B0AF0B9FCFE
:1026600041EC100BBDEC068B10BD10B52DED088BA9
:10267000B0EE408AF0EE608A01249FED3D0B53ECF2
:10268000102B51EC180B0AF0FDFB41EC180B9FEDE1
:10269000360B53EC102B51EC180B0AF049FD0AD8FD
:1026A000A41E9FED310B53EC102B51EC180B0AF0CC
:1026B0008AFC41EC180B20460AF0FDFC41EC1A0B99
:1026C000B0EE480AF0EE680AFFF799FFB0EE40BAA4
:1026D000F0EE60BA53EC1A2B51EC1B0B0AF079FCAC
:1026E00041EC190B0AF03CFD00EE100ABDEC088B22
:1026F00010BDB0EE401AB5EEC01AF1EE10FA3BDD97
:1027000031EE600AB5EEC00AF1EE10FA3FD2DFED0D
:10271000021AB0EE610A3AE0000000008180803BBE
:102720000000804360000020DB0F4940DB0FC93F01
:10273000DB0FC9BFDF59375F000000000000000059
:10274000000000602FF0D93F00000060305FF43FD0
:10275000000000000000F03F000000C0CCCCCCBF67
:10276000000000C0CCCCCC3FF1D4C853FB210940C1
:10277000F1D4C853FB21F93F31EE200AB5EEC00A6F
:10278000F1EE10FA03DD5FED1C1AB0EE610A70473E
:10279000B0EE401AF1EE601AB4EEE11AF1EE10FA62
:1027A00007DDB4EEE01AF1EE10FA02D21FED260AB0
:1027B00001E0B0EE410A7047F0EE400A9FED210AB9
:1027C000F4EEC00AF1EE10FA04DD9FED1F0A30EEC0
:1027D000C00A70479FED1D0AF4EEC00AF1EE10FA30
:1027E00004D29FED190A30EE800AF2E7B0EE600ADB
:1027F000EFE7F0EE401AB7EE000AF4EEC00AF1EE91
:1028000010FA04DCF5EEC00AF1EE10FA02D21FED68
:102810003E0A704781EE810AB5EEC00AF1EE10FA69
:1028200002DD81EE810A03E081EE810AB1EE400A09
:1028300020EE202AB7EE000A30EE600A02EE210AEE
:10284000E7E70000000034430000B443000034C355
:102850000246002007E0FC4B1B5632F8133021F8EB
:102860001030431CD8B20828F5DB7047F748D0ED8C
:10287000020A9FEDF71AF4EEC10AF1EE10FA51D2F6
:10288000D0ED030A9FEDF21AF4EEC10AF1EE10FA50
:102890001AD2F048B0F90000401CC8B3EE480078E6
:1028A000B0B3EC48B0F9000000EE900AF8EEE00A90
:1028B0009FEDEA1A41EE000AFDEEE00A10EE900AE2
:1028C00000B2E449088030E0E048D0ED030A9FED13
:1028D000E41AF4EEC10AF1EE10FA1ADDDD48B0F99F
:1028E0000000401CA0B1DC48007888B9D948B0F994
:1028F000000000EE900AF8EEE00A9FEDD81A41EED3
:10290000000AFDEEE00A10EE900A00B2D1490880FC
:102910000BE0D048B0F90000401C30B90020CD4990
:10292000088002E00020CB490880CA48B0F90000C6
:10293000B0F57A7F10DD4FF0FF30C6490880C648F9
:10294000007830B90120C44908700220C549487098
:1029500002E00020C049087070473FB5F0EE401A11
:102960000546C1480078012804D1C0492846FFF730
:102970006FFF07E0BC480078022803D1BB49BC4880
:10298000FFF766FF002407E2B84830F8140040F66D
:10299000C411884205DCB54830F81400B0F5FA7F60
:1029A00007DA0120B34908550020B34921F8140083
:1029B00012E0B14830F81400401CAF4921F814006F
:1029C000084630F81400C82806DD4FF4FA6021F8F4
:1029D00014000020A7490855A3480078012803D017
:1029E000A148007802287BD1A248005D0028FAD1D6
:1029F0009E4830F814002DF81400A04830F9140057
:102A00009F4931F9141088426BDD9E48005D002813
:102A100078D13DF814009A4931F91410401A00EEAB
:102A2000100AB8EEC01A954830F91400944931F9EB
:102A30001410401A00EE100AB8EEC00AC1EE000AE7
:102A40009FED861A9FED900A10EE810ABDEEC00A36
:102A500010EE100A00B210F5FA7F01DA8B484DE053
:102A60003DF81400864931F91410401A00EE100A9E
:102A7000B8EEC01A814830F91400814931F91410B8
:102A8000401A00EE100AB8EEC00AC1EE000A9FED2F
:102A9000731A9FED7D0A10EE810ABDEEC00A10EE9A
:102AA000100A00B2B0F5FA7F02DD4FF4FA7025E0AB
:102AB0003DF81400724931F91410401A00EE100A62
:102AC000B8EEC01A6D4830F914006D4931F9141090
:102AD000401A00EE100AB8EEC00AC1EE000A02E089
:102AE0008AE086E00EE09FED5D1A9FED670A10EE2A
:102AF000810ABDEEC00A10EE100A00B2644921F846
:102B0000140079E03DF814005D4931F91410401AC1
:102B100000EE100AB8EEC01A584830F914005849AF
:102B200031F91410401A00EE100AB8EEC00AC1EED6
:102B3000000A9FED4A1A9FED540A10EE810ABDEE7D
:102B4000C00A10EE100A00B210F5FA7F01DA4F4801
:102B500049E03DF814004A4931F91410401A00EEDA
:102B6000100AB8EEC01A454830F91400444931F94A
:102B70001410401A00EE100AB8EEC00AC1EE000AA6
:102B80009FED361A9FED400A10EE810ABDEEC00A95
:102B900010EE100A00B2B0F5FA7F02DD4FF4FA70C1
:102BA00021E03DF81400364931F91410401A00EEC6
:102BB000100AB8EEC01A314830F91400304931F922
:102BC0001410401A00EE100AB8EEC00AC1EE000A56
:102BD0009FED221A9FED2C0A10EE810ABDEEC00A6D
:102BE00010EE100A00B2404200B2294921F8140048
:102BF00002E00020184908709FED260A21EE800AA5
:102C0000254880ED000A3DF8140000EE100AB8EEE9
:102C1000400A0E4800EB8400D0ED000A30EE600A56
:102C2000B5EEC00AF1EE10FA38DD3DF8140000EE02
:102C3000100AB8EE400A054800EB8400D0ED000A07
:102C400030EE600A39E0000064040020140A00201D
:102C50000000C8C3A6040020A404002000007A4499
:102C60000000C843100C00206C040020840A0020DF
:102C7000E40A00206D040020740A0020780400207B
:102C800088040020980400200000FA430CFEFFFF97
:102C9000E409002034337B42A00400203DF81400F6
:102CA00000EE100AB8EE400A494800EB8400D0ED6F
:102CB000000A30EE600AB1EE400ADFED460AB4EEDB
:102CC000E00AF1EE10FA1DD2434830F9140000EE8C
:102CD000100AB8EEC00A3E4800EB8400D0ED000AAE
:102CE00070EE600A3A4800EB840090ED000A3B4821
:102CF00090ED001A01EE200A354800EB840080EDCB
:102D0000000A20E0344830F9140000EE100AB8EE52
:102D1000C00A2F4800EB8400D0ED000A70EE600A74
:102D20002B4800EB840090ED000A2C4890ED001A2F
:102D3000B6EE002A21EE021A01EE200A244800EB2A
:102D4000840080ED000A224800EB840090ED000A28
:102D5000234800EB8400D0ED000A30EE600A2148E1
:102D600000EB840080ED000A194800EB840090ED30
:102D7000000A1B4800EB840080ED000A164830F979
:102D8000140000EE100AB8EEC00A174800EB8400E9
:102D900080ED000A601CC4B2082CFFF6F5ADB0EE61
:102DA000610AFFF763FD11480088401C80B20F499B
:102DB0000880C82803DD002008800D4908703FBD49
:102DC0000B4908700021094A1180704770470000C4
:102DD000140A00200000C842E4090020A0040020DA
:102DE000340A0020540A0020F40900207604002050
:102DF0006C04002070B505460C462146F84804F0E6
:102E0000E8F870BD2DE9F0432DED028B83B0054647
:102E10000E4617469846B0EE408A0024AA22214664
:102E2000641CEF4842542146641C4254042221464B
:102E3000641C425400222146641C42542146641CF6
:102E400045542146641C465401979DF807202146AD
:102E5000641C42549DF806202046611CCCB2E04917
:102E60000A549DF805202046611CCCB2DC490A5466
:102E70009DF804202046611CCCB2D9490A54CDF8F3
:102E800004809DF807202046611CCCB2D4490A5426
:102E90009DF806202046611CCCB2D1490A549DF809
:102EA00005202046611CCCB2CD490A549DF804206F
:102EB0002046611CCCB2CA490A549FEDCA0A28EECA
:102EC000000ABDEEC00A10EE100A00B202909DF892
:102ED00009202046611CCCB2C1490A549DF8082043
:102EE0002046611CCCB2BE490A54201FC8704FF066
:102EF0000009002006E0BA49095C494401F0FF09D5
:102F0000411CC8B2A042F6DB2046611CCCB2B449D9
:102F100001F800902146B248FFF76CFF03B0BDEC0A
:102F2000028BBDE8F08370B52DED0A8B82B00546AB
:102F3000B0EE408AF0EE608AB0EE419AF0EE619A0F
:102F4000B0EE42AAF0EE62AAB0EE43BAF0EE63BA77
:102F5000B0EE44CA0024AA222146641CA048425470
:102F60002146641C425405F10F00C2B22146641C84
:102F70009B48425400222146641C42549FED9A0A09
:102F800028EE000ABDEEC00A10EE100A00B2019051
:102F90009DF805202146641C914842549DF8042068
:102FA0002146641C42549FED900A28EE800ABDEE33
:102FB000C00A10EE100A00B201909DF805202146CB
:102FC000641C874842549DF804202046611CCCB202
:102FD00083490A549FED840A29EE000ABDEEC00A17
:102FE00010EE100A00B201909DF805202046611CE9
:102FF000CCB27B490A549DF804202046611CCCB217
:1030000077490A549FED780A29EE800ABDEEC00A7E
:1030100010EE100A00B201909DF805202046611CB8
:10302000CCB26F490A549DF804202046611CCCB2F2
:103030006B490A549FED6C0A2AEE000ABDEEC00AE5
:1030400010EE100A00B201909DF805202046611C88
:10305000CCB263490A549DF804202046611CCCB2CE
:103060005F490A549FED600A2AEE800ABDEEC00A4D
:1030700010EE100A00B201909DF805202046611C58
:10308000CCB257490A549DF804202046611CCCB2AA
:1030900053490A549FED540A2BEE000ABDEEC00AB4
:1030A00010EE100A00B201909DF805202046611C28
:1030B000CCB24B490A549DF804202046611CCCB286
:1030C00047490A549FED480A2BEE800ABDEEC00A1C
:1030D00010EE100A00B201909DF805202046611CF8
:1030E000CCB23F490A549DF804202046611CCCB262
:1030F0003B490A549FED3C0A2CEE000ABDEEC00A83
:1031000010EE100A00B201909DF805202046611CC7
:10311000CCB233490A549DF804202046611CCCB23D
:103120002F490A54201FC8700026002005E02C49B2
:10313000095C3144CEB2411CC8B2A042F7DB204644
:10314000611CCCB226490E5421462548FFF752FE99
:1031500002B0BDEC0A8B70BDF8B505460E460024E2
:10316000AA222146641C1E4842542146641C425433
:1031700005222146641C425400222146641C42540C
:1031800000959DF801202146641C42549DF80020C2
:103190002146641C425400969DF801202146641C7F
:1031A00042549DF800202146601CC4B20C48425491
:1031B000201F0B49C8700027002005E00849095C62
:1031C0003944CFB2411CC8B2A042F7DB2046611C93
:1031D000CCB203490F5421460148FFF70BFEF8BD5E
:1031E000B10A00200000C84200007A447FB50024E4
:1031F000AA222146641CFE4842542146641C4254C3
:1032000006222146641C425400222146641C42547A
:103210009DF801202146641C42549DF8002021465F
:10322000641C42549DF805202146641C42549DF8BC
:1032300004202046611CCCB2ED490A549DF80920B7
:103240002046611CCCB2EA490A549DF80820204669
:10325000611CCCB2E6490A549DF80D202046611C41
:10326000CCB2E3490A549DF80C202146601CC4B23C
:10327000DF4842549DF821202046611CCCB2DC4935
:103280000A549DF820202046611CCCB2D8490A542B
:103290009DF825202046611CCCB2D5490A549DF8E2
:1032A00024202046611CCCB2D1490A549DF8292023
:1032B0002046611CCCB2CE490A549DF828202046F5
:1032C000611CCCB2CA490A549DF82D202046611CCD
:1032D000CCB2C7490A549DF82C202046611CCCB2C0
:1032E000C3490A54201FC8700025002005E0C049CA
:1032F000095C2944CDB2411CC8B2A042F7DB20468C
:10330000611CCCB2BA490D542146B948FFF772FD91
:103310007FBD7FB50024AA222146641CB4484254D4
:103320002146641C425403222146641C425400225C
:103330002146641C42549DF801202146641C4254DD
:103340009DF800202146641C42549DF8052021462A
:10335000641C42549DF804202046611CCCB2A44950
:103360000A549DF809202046611CCCB2A0490A5499
:103370009DF808202046611CCCB29D490A549DF856
:103380000D202046611CCCB299490A549DF80C20AE
:103390002046611CCCB296490A549DF82120204653
:1033A000611CCCB292490A549DF820202146601C31
:1033B000C4B28F4842549DF825202046611CCCB2EF
:1033C0008B490A549DF824202046611CCCB28849C0
:1033D0000A549DF829202046611CCCB284490A5425
:1033E0009DF828202046611CCCB281490A549DF8E2
:1033F0002D202046611CCCB27D490A549DF82C201A
:103400002046611CCCB27A490A549DF831202046EE
:10341000611CCCB276490A549DF830202046611CCC
:10342000CCB273490A549DF835202046611CCCB2B9
:103430006F490A549DF834202046611CCCB26C4977
:103440000A54201FC8700025002005E06849095C67
:103450002944CDB2411CC8B2A042F7DB2046611C12
:10346000CCB263490D5421466148FFF7C3FC7FBDD0
:1034700073B50024AA222146641C5D4842542146AB
:10348000641C425407222146641C425400222146F7
:10349000641C42549DF803202146641C42549DF84C
:1034A00002202146641C42549DF801202146641CE0
:1034B00042549DF800202046611CCCB24C490A546D
:1034C0009DF805202046611CCCB249490A549DF85C
:1034D00004202046611CCCB245490A54201FC87004
:1034E0000025002005E04249095C2944CDB2411C79
:1034F000C8B2A042F7DB2046611CCCB23C490D5457
:1035000021463B48FFF776FC7CBD2DE9F84F054688
:103510000E4617469846DDE90AAB0024AA2221464A
:10352000641C334842542146641C42540222214602
:10353000641C425400222146641C425400959DF8AC
:1035400001202146641C42549DF800202146641C41
:10355000425400969DF801202146641C42549DF877
:1035600000202146601CC4B22148425400979DF8B7
:1035700001202046611CCCB21D490A549DF8002050
:103580002046611CCCB21A490A54CDF800809DF83F
:1035900001202046611CCCB215490A549DF8002038
:1035A0002046611CCCB212490A54CDF800A09DF807
:1035B00001202046611CCCB20D490A549DF8002020
:1035C0002046611CCCB20A490A54CDF800B09DF8DF
:1035D00001202146601CC4B2054842549DF80020D9
:1035E0002146601CC4B2024842540C98009001E08D
:1035F000B10A00209DF801202046611CCCB2FE4992
:103600000A549DF800202046611CCCB2FA490A54A5
:103610000D9800909DF801202046611CCCB2F6491F
:103620000A549DF800202046611CCCB2F2490A548D
:103630000E9800909DF801202046611CCCB2EE4906
:103640000A549DF800202046611CCCB2EA490A5475
:10365000002000909DF801202046611CCCB2E64974
:103660000A549DF800202046611CCCB2E2490A545D
:10367000201FC8704FF00009002006E0DE49095CF9
:10368000494401F0FF09411CC8B2A042F6DB2046C4
:10369000611CCCB2D84901F800902146D648FFF70A
:1036A000A9FBBDE8F88F30B52DED048B81B0B0EEED
:1036B000408AF0EE608AB0EE419AF0EE619A002402
:1036C000AA222146641CCC4842542146641C425420
:1036D000F1222146641C425400222146641C4254BB
:1036E000BDEEC80A10EE100A00B200909DF801204D
:1036F0002146641CC04842549DF800202146641CA9
:103700004254BDEEE80A10EE100A00B200909DF897
:1037100001202146641CB84842549DF800202146EF
:10372000601CC4B2B4484254BDEEC90A10EE100A7F
:1037300000B200909DF801202046611CCCB2AE4939
:103740000A549DF800202046611CCCB2AA490A54B4
:10375000BDEEE90A10EE100A00B200909DF80120BB
:103760002046611CCCB2A4490A549DF80020204692
:10377000611CCCB2A0490A54002000909DF80120A1
:103780002146601CC4B29C4842549DF8002020464B
:10379000611CCCB298490A54201FC8700025002033
:1037A00005E09549095C2944CDB2411CC8B2A0424C
:1037B000F7DB2046611CCCB28F490D5421468E4860
:1037C000FFF718FB01B0BDEC048B30BD30B52DED1B
:1037D000048B81B0B0EE408AF0EE608AB0EE419A80
:1037E0000024AA222146641C834842542146641CBA
:1037F00042540B222146641C425400222146641C80
:1038000042549FED7E0A28EE000ABDEEC00A10EE7B
:10381000100A00B200909DF801202146641C7648F1
:1038200042549DF800202146641C42549FED730AC7
:1038300028EE800ABDEEC00A10EE100A00B2009019
:103840009DF801202146641C6B4842549DF80020DD
:103850002046611CCCB268490A549FED680A29EEE3
:10386000000ABDEEC00A10EE100A00B200909DF8EA
:1038700001202046611CCCB25F490A549DF800200B
:103880002046611CCCB25C490A54201FC870002538
:10389000002005E05849095C2944CDB2411CC8B25A
:1038A000A042F7DB2046611CCCB253490D5421469F
:1038B0005148FFF79FFA01B0BDEC048B30BD2DE9F4
:1038C000F0432DED048B83B0B0EE408AF0EE608AB9
:1038D000B0EE419A05460E461746984600240196DA
:1038E000AA222146641C444842542146641C425486
:1038F00001222146641C425400222146641C425489
:103900009FED3F0A28EE000ABDEEC00A10EE100A35
:1039100000B202909DF809202146641C36484254AA
:103920009DF808202146641C42549FED350A28EE7C
:10393000800ABDEEC00A10EE100A00B202909DF897
:1039400009202146641C2C4842549DF8082020463A
:10395000611CCCB228490A549FED290A29EE000ABD
:10396000BDEEC00A10EE100A00B202909DF80920C8
:103970002046611CCCB220490A549DF808202046FC
:10398000611CCCB21C490A5402959DF809202046BE
:10399000611CCCB218490A549DF808202046611CCD
:1039A000CCB215490A549DF807202046611CCCB2C0
:1039B00011490A549DF806202046611CCCB20E49DC
:1039C0000A549DF805202046611CCCB20A490A54CD
:1039D0009DF804202046611CCCB207490A542046B9
:1039E000611CCCB204490F542046611CCCB2024980
:1039F00001F80080201F05E0B10A0020CDCCCC3DAD
:103A00000000C842C8704FF00009002006E0FE49DF
:103A1000095C494401F0FF09411CC8B2A042F6DB31
:103A20002046611CCCB2F84901F800902146F648C6
:103A3000FFF7E0F903B0BDEC048BBDE8F0837FB580
:103A400005460024AA222146641CEF484254214620
:103A5000641C425400222146641C42542146641CCA
:103A600042542146641C45549DF805202146641C9F
:103A700042549DF804202146641C42549DF80920BC
:103A80002046611CCCB2E0490A549DF8082020462B
:103A9000611CCCB2DC490A549DF80D202046611C03
:103AA000CCB2D9490A549DF80C202046611CCCB2F6
:103AB000D5490A549DF821202046611CCCB2D24938
:103AC0000A549DF820202046611CCCB2CE490A54ED
:103AD000201FC8700026002005E0CB49095C314456
:103AE000CEB2411CC8B2A042F7DB2046611CCCB26A
:103AF000C5490E542146C448FFF77CF97FBD10B577
:103B000086B0C2480078C249097890FBF1F201FB07
:103B10001201BF480078401E814202D10120BD49F8
:103B20008870BA480078BC49097890FBF1F201FB33
:103B30001201B9480078401E814202D10120B549E6
:103B4000C870B2480078B549097890FBF1F201FBE2
:103B50001201B2480078801E814202D10120AD4995
:103B60008873AA480078AE49097890FBF1F201FB0E
:103B70001201AB480078401E814202D10120A549C4
:103B80004870A2480078A749097890FBF1F201FB40
:103B90001201A4480078401E814202D101209D49B3
:103BA00088729A480078A049097890FBF1F201FBED
:103BB00012019D480078801E814202D10120954962
:103BC0000873924800789949097890FBF1F201FB5B
:103BD000120196480078801E814202D101208D4951
:103BE00048738A4800789249097890FBF1F201FB0A
:103BF00012018F480078C01E814202D10120854900
:103C0000C873824800788B49097890FBF1F201FB78
:103C1000120188480078C01E814204D17D48007C92
:103C2000401C7C49087479480078401CC0B2774930
:103C30000870C82801DD002008707648007860B15F
:103C40000020744908704FF4C87364224FF49671D1
:103C500000900420FFF7F3FE18E26E484078B0B100
:103C600000206C4948707448037874480278002139
:103C70007348008800B2734C94ED001A724CD4ED76
:103C8000000A724C94ED000AFFF719FEFEE161484C
:103C9000C07B60B100205F49C8736D4890ED001A89
:103CA000DFED6C0A9FED6B0AFFF790FDEEE15948DE
:103CB000807B88B10020574988736748D0ED001A8F
:103CC000664890ED001A6648D0ED000A654890ED10
:103CD000000AFFF7E8FCD9E14E488078E8B30020FD
:103CE0004C498870604890ED0A0ABDEEC00A10EE9B
:103CF000100A01B25C4890ED090ABDEEC00A10EE50
:103D0000100A02B2584890ED080ABDEEC00A10EE43
:103D1000100A00B2554B93ED090ABDEEC00A10EE31
:103D2000103A1BB2CDE90130CDE903214F4890EDA7
:103D3000080ABDEEC00A10EE100A00B24B4C00900B
:103D400094ED070ABDEEC00A10EE104A23B2474CAC
:103D500094ED060ABDEEC00A00E015E010EE104A30
:103D600022B2424C94ED050ABDEEC00A10EE104A94
:103D700021B23E4C94ED040ABDEEC00A10EE104A8A
:103D800020B2FFF7C2FB81E12248C07840B1002099
:103D90002049C8702A4801880020FFF769FB75E1B7
:103DA0001C48807A70B300201A49887240F2DC52B5
:103DB0002F48C08900F2DC5080B22D49898901F278
:103DC000DC5189B2CDE9030229480592029140896C
:103DD00000F2DC5080B22649098901F2DC5189B237
:103DE000234CCDE90010648804F2DC54A3B2204CCB
:103DF000248804F2DC54A2B21D4CE48804F2DC54A2
:103E0000A1B237E03EE00000B10A0020BA04002071
:103E1000BB040020A00A0020BC040020BD04002038
:103E2000BE040020BF040020C0040020C104002004
:103E3000C2040020C3040020A4040020A904002020
:103E400020060020300000202C0000202800002048
:103E50006805002000000000600500205C050020CF
:103E60005805002054050020CC050020100C00202F
:103E7000E4090020FD4CA48804F2DC54A0B2FFF752
:103E800048FA03E1FA48007B48B30020F849087378
:103E9000009001900290F74C039094ED030ABCEE61
:103EA000C00A10EE104AA3B2F24C94ED020ABCEE26
:103EB000C00A10EE104AA2B2EE4C94ED010ABCEE1C
:103EC000C00A10EE104AA1B2EA4C94ED000ABCEE12
:103ED000C00A10EE104AA0B2FFF788F9D6E0E44815
:103EE000407B40B10020E24948734FF4E4717B20ED
:103EF000FFF732F9CAE0DE48007958B30020DC4908
:103F00000871DD48D0ED1E4AB0EE644AD0ED1F4A7C
:103F1000F0EE643AD0ED1D4AB0EE643AD0ED1A4AA4
:103F2000F0EE642AD0ED1B4AB0EE642AD0ED194AB7
:103F3000F0EE641AD0ED164AB0EE641AD0ED174ACE
:103F4000F0EE640AD0ED154AB0EE640A0120FEF7E7
:103F5000EAFF9BE0C648407958B30020C449487145
:103F6000C648D0ED1E4AB0EE644AD0ED1F4AF0EECE
:103F7000643AD0ED1D4AB0EE643AD0ED1A4AF0EE44
:103F8000642AD0ED1B4AB0EE642AD0ED194AF0EE57
:103F9000641AD0ED164AB0EE641AD0ED174AF0EE6E
:103FA000640AD0ED154AB0EE640A0220FEF7BBFFAA
:103FB0006CE0AF48807958B30020AD498871B048B3
:103FC000D0ED214AB0EE644AD0ED224AF0EE643AD8
:103FD000D0ED204AB0EE643AD0ED1D4AF0EE642AEE
:103FE000D0ED1E4AB0EE642AD0ED1C4AF0EE641A01
:103FF000D0ED194AB0EE641AD0ED1A4AF0EE640A18
:10400000D0ED184AB0EE640A0320FEF78CFF3DE0C5
:104010009748C07958B300209549C8719948D0EDA8
:10402000084AB0EE644AD0ED074AF0EE643AD0EDAB
:10403000064AB0EE643AD0ED054AF0EE642AD0EDBF
:10404000044AB0EE642AD0ED034AF0EE641AD0EDD3
:10405000024AB0EE641AD0ED014AF0EE640AD0EDE7
:10406000004AB0EE640A0420FEF75DFF0EE08048CF
:10407000007C02280AD100207D4908741FED8B0ABC
:1040800000231A4619461846FEF7BCFE06B010BDBE
:1040900070B504460D46AA207B4908704870EF2091
:1040A00088700220C87008460471457100260020FF
:1040B00005E07549095C3144CEB2411CC8B20628FE
:1040C000F7DB714886710721FEF794FE70BD70B56D
:1040D0002DED048B04460D460026002004E0215CF3
:1040E0003144CEB2411CC8B2691E8142F7DC60196E
:1040F00010F8010CB04202D0BDEC048B70BD2078EA
:10410000AA2802D16078AF2800D0F5E7A07801286E
:1041100022D12079012802D15C4908701CE0207965
:10412000022803D101205949487015E0207903285D
:1041300004D101205549087048700DE02079042809
:1041400003D101205249087006E02079212802DBC2
:104150002079262800DD00BFA078022814D120791C
:10416000012806D14249087148718871C8710872E6
:1041700048722079A02802D101203D490870207999
:10418000A12801D1FCF7F5F9A078032839D1012045
:104190004049087040480078022802D00220FEF70B
:1041A0000FFE2079617941EA00203C498880A0799E
:1041B000E17941EA00203949C880207A617A41EAF0
:1041C000002036490880A07AE17A41EA002033498C
:1041D0004880207B617B41EA002030490881A07B38
:1041E000E17B41EA00202D494881207C617C41EA45
:1041F00000202A498881A07CE17C41EA00202749EF
:10420000C881A078042827D12079012805D1002071
:10421000234908701F4908701EE0207902280ED13A
:1042200000201C4908704FF67060104988800020FB
:1042300008804880C8800120194908700CE0207966
:10424000032803D101201749087005E020790428CC
:1042500002D1022013490870A078052833D12079B3
:10426000012823D1104908702DE00000E409002046
:10427000A00A0020540900208007002044080020E4
:10428000C006002080060020B10A0020100C00208B
:10429000F9050020640500206C040020E40A0020D9
:1042A000A4040020A8040020F4040020207902289F
:1042B00003D10120FE49087005E02079032802D1CE
:1042C0000120FC490870A078062828D12079000236
:1042D00000B261790843F84908800846B0F9000047
:1042E00040F24C41884205D1F3480088283000B2A2
:1042F000F1490880A079000200B2E1790843EF4952
:104300000880207A000200B2617A0843EC490880F4
:10431000A07A000200B2E17A0843EA490880A07856
:1043200010287DD12179090209B2627941EA02009F
:1043300008F0C1FE41EC190B9FEDE30B53EC102B81
:1043400008F047FE41EC180B08F00AFFE049486509
:10435000A179090209B2E27941EA020008F0ABFE54
:1043600041EC190B9FEDD80B53EC102B08F031FEEC
:1043700041EC180B08F0F4FED549C865217A090212
:1043800009B2627A41EA020008F095FE41EC190B8D
:104390009FEDCD0B53EC102B08F01BFE41EC180BDE
:1043A00008F0DEFECA498865A17A090209B2E27AFC
:1043B00041EA020008F07FFE41EC190B9FEDC20BB1
:1043C00053EC102B08F005FE41EC180B08F0C8FE6A
:1043D000BF494866217B090209B2627B41EA0200BB
:1043E00008F069FE41EC190B9FEDB70B53EC102B55
:1043F00008F0EFFD41EC180B08F0B2FE0146B4489E
:10440000C166A17B090209B2E27B41EA020008F021
:1044100052FE41EC190B9FEDAC0B53EC102B00E05E
:1044200055E008F0D6FD41EC180B08F099FE014666
:10443000A7488166217C090209B2627C41EA020038
:1044400008F039FE41EC190B9FED9F0B53EC102B3C
:1044500008F0BFFD41EC180B08F082FE9C4948674C
:10446000A17C090209B2E27C41EA020008F023FEC5
:1044700041EC190B9FED940B53EC102B08F0A9FDA8
:1044800041EC180B08F06CFE01469148C167217D94
:10449000090209B2627D41EA020008F00CFE41EC1B
:1044A000190B9FED890B53EC102B08F092FD41EC9A
:1044B000180B08F055FE014685488167A078314603
:1044C000FFF7E6FDFCF74FF8012082490880A0784D
:1044D00011287DD12179090209B2627941EA0200ED
:1044E00008F0E9FD41EC190B9FED770B53EC102B15
:1044F00008F06FFD41EC180B08F032FE7649486574
:10450000A179090209B2E27941EA020008F0D3FD7B
:1045100041EC190B9FED6C0B53EC102B08F059FD7F
:1045200041EC180B08F01CFE6B49C865217A0902A2
:1045300009B2627A41EA020008F0BDFD41EC190BB4
:104540009FED610B53EC102B08F043FD41EC180B71
:1045500008F006FE60498865A17A090209B2E27A8C
:1045600041EA020008F0A7FD41EC190B9FED560B44
:1045700053EC102B08F02DFD41EC180B08F0F0FD6A
:1045800055494866217B090209B2627B41EA020073
:1045900008F091FD41EC190B9FED4B0B53EC102BE8
:1045A00008F017FD41EC180B08F0DAFD01464A4807
:1045B000C166A17B090209B2E27B41EA020008F070
:1045C0007AFD41EC190B9FED400B53EC102B00E0F2
:1045D00055E008F0FEFC41EC180B08F0C1FD014667
:1045E0003D488166217C090209B2627C41EA0200F1
:1045F00008F061FD41EC190B9FED330B53EC102BD0
:1046000008F0E7FC41EC180B08F0AAFD32494867B6
:10461000A17C090209B2E27C41EA020008F04BFDEC
:1046200041EC190B9FED280B53EC102B08F0D1FC3B
:1046300041EC180B08F094FD01462748C167217D25
:10464000090209B2627D41EA020008F034FD41EC42
:10465000190B9FED1D0B53EC102B08F0BAFC41EC2D
:10466000180B08F07DFD01461B488167A078314694
:10467000FFF70EFDFBF777FF012016490880A078B1
:1046800012287BD12179090209B2627941EA02003C
:1046900008F011FD41EC190B9FED0B0B53EC102BA7
:1046A00008F097FC41EC180B08F05AFD0B4917E095
:1046B000F5040020F7040020FE040020000500207F
:1046C000FA040020FC040020FCA9F1D24D62503F06
:1046D00080070020B804002044080020C006002005
:1046E0000866A179090209B2E27941EA020008F0FC
:1046F000E2FC41EC190B1FED0C0B53EC102B08F0F6
:1047000068FC41EC180B08F02BFD96498866217A6D
:10471000090209B2627A41EA020008F0CCFC41ECDD
:10472000190B1FED170B53EC102B08F052FC41EC4A
:10473000180B08F015FD8B494866A17A090209B2E9
:10474000E27A41EA020008F0B6FC41EC190B1FEDD9
:10475000220B53EC102B08F03CFC41EC180B08F03A
:10476000FFFC80490867217B090209B2627B41EAAC
:10477000020008F0A0FC41EC190B00E06FE01FED17
:104780002E0B53EC102B08F024FC41EC180B08F016
:10479000E7FC74498867A17B090209B2E27B41EA20
:1047A000020008F088FC41EC190B1FED390B53ECAB
:1047B000102B08F00EFC41EC180B08F0D1FC6949F5
:1047C0004867217C090209B2627C41EA020008F0D4
:1047D00072FC41EC190B1FED440B53EC102B08F04D
:1047E000F8FB41EC180B08F0BBFC5E49C1F88000F7
:1047F000A17C090209B2E27C41EA020008F05BFCFC
:1048000041EC190B1FED500B53EC102B08F0E1FBA2
:1048100041EC180B08F0A4FC5249C1F88800217D36
:10482000090209B2627D41EA020008F044FC41EC51
:10483000190B1FED5B0B53EC102B08F0CAFB41EC7E
:10484000180B08F08DFC4749C1F88400A078314668
:10485000FFF71EFCFBF787FE012043490880A07884
:10486000132803D1A0783146FFF712FCA078142852
:1048700003D1A0783146FFF70BFCA078152803D1AF
:10488000A0783146FFF704FC00BF35E410B50446BC
:104890003648007838B9AA2C05D101203349087070
:1048A000334804705DE031480078012807D1AF2C0F
:1048B00005D102202D4908702D48447051E02B4845
:1048C0000078022807D1F12C05DA03202749087067
:1048D0002748847045E02548007803280CD1322C05
:1048E0000ADA0420214908702148C4702148047064
:1048F00000202149087034E01C480078042819D1B0
:104900001C480078002815DD1A480078401E194917
:1049100008701948007818490978491C164A11701E
:10492000001D13490C5413480078D0B905200F49D5
:10493000087016E00D48007805280FD100200B49BB
:1049400008700D480078001D09490C540A48007889
:10495000401DC1B20648FFF7BAFB02E00020034940
:10496000087010BDC0060020B8040020C604002056
:10497000F40A0020C4040020C504002030B5044619
:10498000084615886D1CADB21580854204DD0025F2
:1049900015800125558007E01588854201D1002545
:1049A00001E015886D1C5580158804EB850585EDA3
:1049B000000A558804EB8505D5ED000A30EE601A33
:1049C00000EE900AF8EE601AC1EE210A93ED001A8B
:1049D00070EE810AC3ED000A30BD70B58BB0F0EE09
:1049E000400A022801DA0B2903DB9FED7B0A0BB09A
:1049F00070BD7A4C245C641CE4B2784D2C548C421B
:104A000001DB00242C5400EB400404EBC004744D83
:104A100005EB8404714D2D5C04EB8504C4ED000AA4
:104A2000002211E000EB400404EBC0046C4D05EBE8
:104A3000840404EB820494ED000A6C4604EB8204C7
:104A400084ED000A541CE2B28A42EBDB00222DE026
:104A5000002325E06C4604EB830494ED000A6D46C8
:104A60005C1C05EB8404D4ED001AB4EEE10AF1EE0F
:104A700010FA13DD6C4604EB830494ED001A5C1C01
:104A800005EB840494ED000A6C4604EB830484ED8A
:104A9000000A5C1C05EB840484ED001A5C1CE3B284
:104AA0004C1EA41A9C42D5DC541CE2B24C1E94420B
:104AB000CEDC0C4601EBD4756D106E4606EB850519
:104AC00095ED000A93E770B52DED028B04460D4677
:104AD0001646D4ED020AB0EE600AFDF7CDFCF0EE0A
:104AE000408AD4ED010AB0EE600AFDF7C5FC38EE4D
:104AF000800AB0EE408AFDF7C4FC3A4880ED000A17
:104B0000D4ED020AB0EE600AFDF7B6FCF0EE408A82
:104B1000D4ED000AB0EE600AFDF7AEFC38EE800A74
:104B2000B0EE408AFDF7ADFC2F4880ED000A94ED11
:104B3000020AB5EEC00AF1EE10FA02D24FF0FF30D1
:104B400000E001202949087095ED000A2548D0EDC4
:104B5000000A20EE200A94ED001A084690F90000A1
:104B600000EE900AF8EEE00A61EE200A95ED021AD6
:104B700000EEC10A86ED000A084690F9000000EE3A
:104B8000100AB8EEC00A1848D0ED000A20EE200A3C
:104B9000D5ED010A20EE200AD4ED010A95ED021AA6
:104BA00000EEC10A86ED010A94ED000AD5ED000A77
:104BB00020EE200AD4ED010A95ED011A00EE810ADB
:104BC000D4ED020A95ED021A00EE810A86ED020A82
:104BD000BDEC028B70BD000000000000D00400207E
:104BE000280B0020D4040020D8040020D204002088
:104BF0009FED7C0A7C4880ED000A9FED7C0A80EDE9
:104C0000010A9FED7A0A80ED020A704710B57848D4
:104C10000078D8B177480088B0F5167F10DA012007
:104C2000FEF7CEF8744800887449088074480088FC
:104C3000488074480088888073480088C88005E0F0
:104C400000206B49087001207049087010BD10B534
:104C50006F480078002845D00020654908706B49EE
:104C6000087064480088B0F5C87F18DD694800788E
:104C7000401C68490870087800EBD0714910A0EB1F
:104C80004101644A11705B4800888000072190FB55
:104C9000F1F040F28661081A5F4908601BE040F2BB
:104CA00041605D4908605D480068401C5B490860E0
:104CB0000868C11700EB91718910A0EB8101574A78
:104CC00011601046006830B90020514908705449FD
:104CD0000870544908700120FEF772F84E480088A9
:104CE0004649888010BD5048B0F9040000F2DC50FD
:104CF0004E49086070473F48008840F2AA518842F8
:104D00001DDD0120424908700020394908703F49E3
:104D1000087047480088401C4549088008460088BC
:104D2000142190FBF1F201FB120041490880084672
:104D3000008820B900203A4908703A4908703D4877
:104D400090ED000AB5EEC00AF1EE10FA02DD90ED2A
:104D5000000A04E0374890ED000AB1EE400ADFEDAA
:104D6000360AB4EEE00AF1EE10FA16DC334890EDA4
:104D7000000AB5EEC00AF1EE10FA02DD90ED000A6D
:104D800004E02E4890ED000AB1EE400ADFED2A0A59
:104D9000B4EEE00AF1EE10FA04DD002020490870BC
:104DA0002049087026480078401C2549087008787A
:104DB000C11700EB91718910A0EB8101204A11709D
:104DC0000C4800881F49127821F812001548007815
:104DD00028B90748007810B90C48007800B100BF26
:104DE00070470000CDCCCC3C800B002000000000C0
:104DF000F404002020060020FA040020000C00200B
:104E0000FC040020FE04002000050020F604002021
:104E1000F504002007050020DC040020E804002041
:104E2000A404002064050020E4090020E004002020
:104E30000A0500202C000020000048422800002025
:104E40000C0500200E050020874890ED1C0AF7EEA7
:104E5000000A20EE200A854880ED000A824890ED85
:104E60001D0AF7EE000A20EE200A804880ED010AB4
:104E70007D4890ED1E0AF7EE000A20EE200A7B48DE
:104E800080ED020A704730EE601A80ED031A90ED53
:104E9000061AD0ED031A31EE211A80ED061A90EDB4
:104EA000061ADFED731AB4EEE11AF1EE10FA02D22F
:104EB0009FED6F1A0DE090ED061ADFED6E1AB4EE5D
:104EC000E11AF1EE10FA02DD9FED6A1A01E090EDB1
:104ED000061A80ED061A90ED001AD0ED031A21EEA5
:104EE000211AD0ED021A90ED062A01EE821A90EDF9
:104EF000012A6149B1F90010494201EE901AF8EE19
:104F0000E11A02EE211A80ED071A90ED001AD0ED99
:104F1000031A21EE211A594981ED001A90ED021A67
:104F2000D0ED061A21EE211A554981ED001AD0ED77
:104F3000011A5149B1F90010494201EE101AB8EEB8
:104F4000C11A21EE811A4F4981ED001A90ED071A1E
:104F50004D4981ED001A90ED031A80ED041A704757
:104F600000B5B0EE403AF0EE602A484800780028DC
:104F700079D04748008800EE100AB8EE400A45484C
:104F800080ED000A3C48B0F90000C8280EDD40481A
:104F900000883949B1F90010401AC83000EE100AF3
:104FA000B8EEC00A3B4880ED000A13E03248B0F981
:104FB000000010F1C80F0DDA354800882E49B1F90C
:104FC0000010401AC83800EE100AB8EEC00A314886
:104FD00080ED000A304890ED000ADFED300AB4EEB3
:104FE000E00AF1EE10FA03DD9FED2C0A80ED000AD5
:104FF0002848D0ED000A284890ED000A1B48FFF72A
:1050000042FF1A4890ED070A30EE220A244880ED4C
:10501000000A90ED000A234880ED000A1A4890ED3E
:10502000000ABDEEC00A10EE100A00B21E49C88187
:10503000124890ED000ABDEEC00A10EE100A00B250
:1050400008810F4890ED000ABDEEC00A10EE100A6C
:1050500000B248810B4890ED000ABDEEC00A10EE88
:10506000100A00B2888100BDC0060020A00B0020FD
:1050700000803BC500803B452406002054050020ED
:10508000580500205C050020600500206405002014
:10509000200600204C0500203C050020000096441E
:1050A0004805002030050020E40900200EB501214C
:1050B000084603F0BBFA4FF0804003F013FD4FF4B5
:1050C0007A7001905320ADF800000020ADF8080080
:1050D000ADF8020069464FF0804003F0DFFD01218A
:1050E000880706F0C1F801221146900705F0B2FFCB
:1050F0000121880704F06CF90021012003F096FAE1
:105100000EBD08B51C208DF8000002208DF80100AE
:1051100000208DF8020001208DF80300684602F09F
:10512000BCF808BD10B5FFF7C1FFFFF7EAFF01218A
:10513000084603F07BFA10BD7FB5684603F094F88B
:105140004FF47A710198B0FBF1F4E4082146B1F113
:10515000807F00D31DE021F07F40401E4FF0E02211
:10516000506150170F22002807DA13071E0E664BF6
:1051700000F00F052D1F5E5503E013071D0E634B56
:105180001D5400BF00204FF0E02290610720106105
:1051900000BF6FF0040002F017F97FBD5C4A116890
:1051A0004FF0E02252694FF0E0239B69D21A4FF48E
:1051B0007A735A434FF0E0235B69B2FBF3F201EBE1
:1051C0004103C3EBC11302EBC300704730B5044683
:1051D000FFF7E4FF054600BFFFF7E0FF401BA042DA
:1051E000FAD330BD10B5044603E04FF47A70FFF7F0
:1051F000EDFF2000A4F10104F7D110BD10B5454822
:10520000007800B910BD4448006840F2E731884298
:1052100007DA41480068401C3F490860FAF7EEFF92
:1052200029E000203C4908603C4800683B2805DA3A
:105230003A480068401C394908601CE000203749A2
:105240000860374800683B2805DA35480068401C8C
:10525000334908600FE00020314908603148006898
:10526000172805DA2F480068401C2E49086002E024
:1052700000202C49086000BFC4E710B5044604EBC9
:105280004400294901EB800090ED000A04EB440042
:1052900001EB800080ED010AFFF780FF00EE100AAD
:1052A000B8EE400ADFED210A80EE201A04EB44003C
:1052B0001D4901EB800080ED001A04EB440001EB76
:1052C000800090ED000A04EB440001EB8000D0ED7B
:1052D000010A30EE600A04EB440001EB800080ED2F
:1052E000020A04EB440001EB800090ED020A10BDBD
:1052F00010B5002404E02046FFF7BFFF601CC4B2D5
:10530000052CF8DB10BD000018ED00E000E400E023
:105310007405002000000020840500208005002086
:105320007C05002078050020C40B0020002474496F
:1053300000B587B00121062003F078F901210E2085
:1053400003F0AEF81D208DF8040001208DF8050053
:105350008DF806008DF8070001A801F09EFF1E20C1
:105360008DF8040001208DF805008DF806008DF8F9
:10537000070001A801F091FFC020059002208DF8E0
:10538000180003208DF8190000208DF81A00022063
:105390008DF81B0005A9FB4802F0E8F803200590F2
:1053A00002208DF8180003208DF8190000208DF8D8
:1053B0001A0002208DF81B0005A9F34802F0D6F868
:1053C00002220621EF4802F00EFC02220721ED48DE
:1053D00002F009FC02220021EB4802F004FC022248
:1053E0000121E94802F0FFFB5320E8490880002032
:1053F000ADF808000A20ADF80A000120ADF80C0055
:105400000020ADF80E00ADF8100002A9DF482838E2
:1054100005F04EFB0420ADF808000A20ADF80A00A4
:105420000120ADF80C000020ADF80E00ADF8100022
:1054300002A9D648283805F03BFB0820ADF8080043
:105440000A20ADF80A000120ADF80C000020ADF8EC
:105450000E00ADF8100002A9CC48283805F028FB52
:105460000C20ADF808000A20ADF80A000120ADF8C4
:105470000C000020ADF80E00ADF8100002A9C348E2
:10548000283805F015FB0121C048283803F0A0FF9B
:1054900001220221BD48283805F0DCFD012204214B
:1054A000BA48283805F0D6FD01220821B748283827
:1054B00005F0D0FD01221021B448283805F0CAFDBE
:1054C0004FF47040059002208DF8180003208DF8ED
:1054D000190000208DF81A0002208DF81B0005A984
:1054E000AB4802F043F802220C21A94802F07BFBF2
:1054F00002220D21A64802F076FB02220E21A448CA
:1055000002F071FB02220F21A14802F06CFB532034
:10551000A04908800020ADF808000A20ADF80A0074
:105520000120ADF80C000020ADF80E00ADF8100021
:1055300002A99848283805F0BBFA0420ADF8080005
:105540000A20ADF80A000120ADF80C000020ADF8EB
:105550000E00ADF8100002A98E48283805F0A8FA10
:105560000820ADF808000A20ADF80A000120ADF8C7
:105570000C000020ADF80E00ADF8100002A985481F
:10558000283805F095FA0C20ADF808000A20ADF88F
:105590000A000120ADF80C000020ADF80E00ADF8B7
:1055A000100002A97B48283805F082FA01217948C9
:1055B000283803F00DFF012202217648283805F033
:1055C00049FD012204217348283805F043FD0122DA
:1055D00008217048283805F03DFD012210216D4852
:1055E000283805F037FD07B000BD10B50120FDF7E4
:1055F000E7FB66481838008800F0020038B34FF621
:10560000FD706249183908804FF6FF5008805D48E8
:105610001030006800F0400030B15C48283805F0D8
:10562000AAFB5D4908801EE05848283805F0A3FB16
:105630005A4908800846008857490988884207DB8C
:105640005648008854490988401A554908800AE09C
:10565000514800884FF6FF71081A504909880844DC
:10566000401C4F49088049481838008800F0040061
:1056700038B34FF6FB704549183908804FF6FF30B4
:10568000088040481030006800F0800030B13F488A
:10569000283805F09EFB434908801EE03B48283827
:1056A00005F097FB40490880084600883D49098875
:1056B000884207DB3C4800883A490988401A384943
:1056C00048800AE0374800884FF6FF71081A3649CB
:1056D00009880844401C324948802C481838008802
:1056E00000F0080038B34FF6F770284918390880E1
:1056F0004FF2FF70088024481030006800F001006D
:1057000030B12248283805F086FB284908801EE081
:105710001E48283805F07FFB254908800846008888
:1057200022490988884207DB214800881F490988E7
:10573000401A1B4988800AE01C4800884FF6FF7118
:10574000081A1B4909880844401C154988800F48DD
:105750001838008800F0100070B34FF6EF700B4956
:10576000183908804EF6FF7008800748103000682E
:1057700000F0020008B30548283805F068FB0D4921
:10578000088038E00008024000040240280400407D
:10579000000C024028080040880500208A050020EF
:1057A000000C00208C0500208E05002090050020B4
:1057B00092050020940500201DE0804805F047FB7D
:1057C0007F490880084600887E490988884207DBAF
:1057D0007B4800887B490988401A7B49C8800AE0D9
:1057E000784800884FF6FF71081A754909880844FF
:1057F000401C7549C88010BD10B50120FDF7E0FAC6
:105800007248008800F0020028B34FF6FD706F491F
:1058100008804FF6FF5008806D48006800F4805003
:1058200030B16A48103805F0A6FA6A4908801EE0CF
:105830006648103805F09FFA6749088008460088D6
:1058400064490988884207DB634800886149098800
:10585000401A5D4908810AE05E4800884FF6FF71F2
:10586000081A5D4909880844401C5749088157486F
:10587000008800F0040028B34FF6FB7053490880FD
:105880004FF6FF3008805248006800F4005030B1F5
:105890004E48103805F09DFA504908801EE04B48EC
:1058A000103805F096FA4E490880084600884B49A2
:1058B0000988884207DB4A48008848490988401A15
:1058C000414948810AE0454800884FF6FF71081AAF
:1058D000434909880844401C3B4948813B480088AB
:1058E00000F0080028B34FF6F770384908804FF2EF
:1058F000FF7008803648006800F4804030B13348BB
:10590000103805F088FA374908801EE02F48103813
:1059100005F081FA34490880084600883149098831
:10592000884207DB304800882E490988401A2649FA
:1059300088810AE02B4800884FF6FF71081A2A492F
:1059400009880844401C204988812048008800F0CC
:10595000100028B34FF6EF701C4908804EF6FF7018
:1059600008801B48006800F4004030B11748103828
:1059700005F06DFA1D4908801EE01448103805F046
:1059800066FA1B4908800846008818490988884239
:1059900007DB1748008815490988401A0A49C88159
:1059A0000AE0124800884FF6FF71081A104909886A
:1059B0000844401C0449C88110BD00000004004098
:1059C0009605002094050020000C002010080040DF
:1059D000100C0240980500209A0500209C0500202C
:1059E0009E050020A0050020A2050020A40500209F
:1059F000A605002070B58AB00646002542F2107058
:105A000006FB00F407A803F0D4F902A804F053F849
:105A10000CB9012004E0CE48844200D900E02046C1
:105A200004460121082002F001FE0121022002F0BB
:105A300026FE0121084602F022FE0121152002F077
:105A40002FFD0C20009002208DF8040003208DF81B
:105A5000050000208DF8060001208DF8070069463A
:105A6000BC4801F083FD02221146BA4802F0BBF89F
:105A700002220321B74802F0B6F8B7480068400890
:105A8000B0FBF4F0401E85B242F210700890ADF801
:105A90001C500020ADF82400ADF81E0007A9AF4847
:105AA00003F0FCF86020ADF808000020ADF8140009
:105AB0000120ADF80A004FF47A60049002A9A748CB
:105AC00003F093FE0821A54804F076FA0120ADF812
:105AD0000A004FF47A60049002A9A04803F055FF31
