:020000040800F2
:10000000981800206DCF0008B501000877CF0008D0
:10001000B7010008BB010008BF0100080000000094
:10002000000000000000000000000000C301000804
:10003000C50100080000000083CF0008C7010008C8
:1000400087CF000887CF000887CF000887CF000838
:1000500087CF000887CF000887CF000887CF000828
:1000600087CF000887CF000887CF000887CF000818
:1000700087CF000887CF000887CF000887CF000808
:1000800087CF000887CF000887CF000887CF0008F8
:1000900087CF000887CF000887CF000887CF0008E8
:1000A00087CF000887CF000887CF000887CF0008D8
:1000B00087CF0008D9010008E101000887CF0008B8
:1000C00087CF000887CF000887CF000887CF0008B8
:1000D00087CF000887CF0008E901000887CF000814
:1000E00087CF000887CF000887CF000887CF000898
:1000F00087CF000887CF000887CF000887CF000888
:1001000087CF000887CF000887CF000887CF000877
:1001100087CF0008F101000887CF000887CF0008CB
:1001200087CF000887CF000887CF000887CF000857
:1001300087CF000887CF000887CF000887CF000847
:1001400087CF000887CF000887CF000887CF000837
:1001500087CF000887CF000887CF000887CF000827
:1001600087CF000887CF000887CF000887CF000817
:1001700087CF000887CF000887CF000887CF000807
:1001800087CF000887CF0008DFF80CD00DF0C0F94A
:1001900000480047A10100089818002000BFFEE7B2
:1001A00000F046F90249087001E000F0EAF8FCE7C7
:1001B00000000020704700BFFEE700BFFEE700BF61
:1001C000FEE77047704710B50B480068401C0A49AD
:1001D000086005F0ABF810BD10B505F09EFA10BD33
:1001E00010B505F0A1FB10BD10B506F04EFF10BD17
:1001F00010B507F00CF810BD900500208248C089AA
:10020000401C8149C88108468088401C00B2888013
:100210000846C088401C00B2C88008460089401CBF
:1002200000B2088108464089401C00B24881084657
:100230008089401C00B2888108460078012804D1DA
:1002400008464078401C487002E001206E49087062
:10025000704710B5012005F0A8F803F058FC10BD58
:1002600010B52DED028B002005F09FF8B0EE408A0E
:1002700005F02CF800EE100AB8EE400ADFED630A34
:1002800080EE201A624880ED001A05F0DFFFB0EE24
:10029000480A06F011FAB0EE480A01F013F85D487A
:1002A000B0EE480A02F067FB05F010F800EE100A05
:1002B000B8EE400ADFED550A80EE201A544880ED72
:1002C000011ABDEC028B10BD10B52DED028B022082
:1002D00005F06BF8B0EE408A04F0F8FF00EE100A6B
:1002E000B8EE400ADFED490A80EE201A484880ED5A
:1002F000021A4948D0ED063AB0EE633AD0ED053A1D
:10030000F0EE632AD0ED043AB0EE632AD0ED0C3A59
:10031000F0EE631AD0ED0B3AB0EE631AD0ED0A3A64
:10032000F0EE630AF6EE003A68EE233AB0EE630AA6
:100330003A4A3B493B4801F079FBB0EE480A00F0ED
:100340006DFA04F0C3FF00EE100AB8EE400ADFEDCC
:100350002F0A80EE201A2E4880ED031ABDEC028B86
:1003600010BD10B506F0D6FD10BD10B500F00BFAAB
:1003700010BD10B506F0EDFD06F0B0FF04F04CFD29
:1003800010BD10B52048007801283BD126480088D0
:1003900000B226490880FFF75CFF1B48B0F9040053
:1003A000022804DB002018498880FFF759FF16480F
:1003B000B0F90600052804DB00201349C880FFF7C8
:1003C00083FF1148B0F908000A2804DB00200E4919
:1003D0000881FFF7C6FF0C48B0F90A00142804DBB7
:1003E000002009494881FFF7C0FF0748B0F90C0019
:1003F000322804DB002004498881FFF7BAFF00207F
:100400000149087010BD00006C06002000247449EA
:100410007C060020F80B0020080C00203C00002087
:100420003800002034000020A0050020100000202B
:1004300010B54FF4806006F0ADFF04F015FF05F035
:1004400046FD05F00DF84FF4C87005F06BFBC820B1
:1004500004F060FF142005F0DBFF06F061FD4FF4AF
:10046000E13006F09FFD00F00FF9642004F052FF28
:1004700006F02EFF04F0D4FF06F026FB80F001000A
:10048000074908700748007810B906F078FD04E0C5
:100490000348007808B906F079FD012010BD00007E
:1004A00014060020CC05002010B5C248C24BD3E989
:1004B00000219B68C0E90E134263BF4BD3E90321BF
:1004C0005B69C0E911130264BC48BB4B18330ECB07
:1004D00008300EC0B74AB84B24330BCB58320BC28E
:1004E000B54890ED0D0AB34880ED190AB24890ED79
:1004F0000E0AB04880ED1A0AB148B24C1ECC5430F6
:100500001EC06438AF49D1E905340A69C969C0E938
:100510001A3442660167AB4BD3E909141A6ADB6AE5
:10052000C0E91F43C0E91D21A748A64BD3E90C41F0
:10053000D3E90E23C0E91541C0E91723A149D1E948
:1005400011430A6CC96CC0E91A43426601679D49B0
:10055000D1E91434D1E91621C0E91D34C0E91F21C5
:1005600010BD10B500F048F904F006FD04F056FB8C
:1005700010BD10B59FED950A924880ED040A9FEDDD
:10058000930A80ED000A9FED920A80ED080A9FED24
:10059000910A80ED060A9FED8F0A80ED020AB7EE00
:1005A000000A80ED0A0AB0EE000A80ED050AB0EEFE
:1005B000000A80ED010AB7EE000A80ED090AB7EEE5
:1005C000000A80ED070AB7EE000A80ED030AB7EED5
:1005D000000A80ED0B0AB6EE000A80ED100AB6EEB6
:1005E000000A80ED0C0A9FED7C0A80ED140A9FED55
:1005F0007B0A80ED120A9FED790A80ED0E0A9FEDCD
:10060000770A80ED160A9FED760A80ED110A9FEDBC
:10061000740A80ED0D0A9FED6F0A80ED150A9FEDBB
:10062000710A80ED200A9FED6F0A80ED220A9FED8E
:100630006D0A80ED210A9FED6B0A80ED240A9FED83
:10064000690A80ED260A9FED670A80ED250A9FED75
:10065000630A80ED180A9FED640A80ED1A0AB7EE6E
:10066000000A80ED190A9FED5B0A80ED1C0A9FEDE0
:100670005F0A80ED1E0AB0EE080A80ED1D0AFFF742
:1006800013FFFFF76EFF10BD10B5FFF772FFFFF706
:100690000BFFFFF766FF10BD10B5464990E81C0040
:1006A00034311CC1444990E81C001CC1414991ED02
:1006B000190A414981ED0D0A10BD10B53D4990E878
:1006C0001C0040311CC13C4990E81C000C311CC18D
:1006D000384991ED1A0A384981ED0E0A10BD10B55E
:1006E000364990E81C0008311CC1334990E81C00D1
:1006F00018311CC110BD10B52E4990E81C005831AE
:100700001CC12D4990E81C0024311CC110BD10B53E
:100710002C482B49D1E916344A6D096E80E81C003B
:10072000C16001462648D0E91A34426E006FC1E923
:1007300005340A61C8612248D0E91E34426FD0F8FE
:100740008000C1E909340A62C8620A461E4CD4E935
:100750001530D4E91714C2E90E14C2E90C30104662
:100760001949D1E91942D1E91B31C0E91042C0E968
:1007700012311549D1E91D42D1E91F31C0E91442B6
:10078000C0E9163110BD00B51948008820B11848DD
:100790000088401C16490880154800883C2807DD61
:1007A0000020134908801348007808B9FFF7AFFF0D
:1007B00000BD0000080C002090060020E805002085
:1007C00090070020D006002054080020CDCC4C3FDC
:1007D0009A99993FCDCCCC3DCDCC4C3ECDCC4C3D27
:1007E0009A99993E00000000A69B443B0AD7233CFF
:1007F000C4040020B0040020B7EE000AFE4880EDDB
:10080000180AB7EE000A80ED1C0AB7EE000A80ED68
:10081000200A9FEDFA0A80ED300A704710B52DEDE1
:100820000E8BB0EE408AF648D0ED000AB0EE600ABA
:10083000F3EE0E0A01F06BFFDFEDF20A80EE201AF4
:10084000B3EE090A21EE000AEF4880ED000AEC48F9
:10085000D0ED010AF1EE600AB0EE600AF3EE0E0A86
:1008600001F055FFDFEDE70A80EE201AB3EE090A2A
:1008700021EE000AE44880ED010AE448007808BB54
:10088000DF48D0ED030AB0EE600ADFEDE10A01F0C7
:100890008DFFDFEDDC0A80EE201A9FEDDE0A21EEEF
:1008A000000ABDEEC00A10EE100A00B200EE100AF7
:1008B000F8EEC00AD44890ED020A00EE880A80EDF6
:1008C000020A36E0D04890ED020AD348D0ED000A83
:1008D00030EEC00A10EE101A08460CF095FC41EC00
:1008E0001C0B18EE100A0CF08FFC41EC1E0B9FED58
:1008F000CB0B53EC102B0CF004FC41EC1D0B53EC18
:100900001C2B0CF0FEFB41EC1A0BBF4890ED020AC9
:1009100010EE101A08460CF077FC41EC1B0B53EC60
:100920001A2B0CF047FB41EC190B0CF0B1FCB6494B
:100930008860B548D0ED020AB0EE600A01F04AFFC7
:10094000B14880ED020AB748D0ED000AAE4890EDFC
:10095000001A70EE810AB44890ED001A70EEC10AD8
:10096000B0EE600A01F036FFB04880ED000AAD48F5
:10097000D0ED010AA44890ED011A70EE810AAC484E
:1009800090ED001A70EEC10AB0EE600A01F022FF8D
:10099000A64880ED010AA348D0ED020A9A4890EDDE
:1009A000021A70EE810A9C4890ED001A70EEC10A9E
:1009B000B0EE600A01F00EFF9C4880ED020A90ED57
:1009C000000AB5EEC00AF1EE10FA02DD90ED000A61
:1009D00004E0964890ED000AB1EE400AF3EE0E0AEC
:1009E00080EE201A914880ED2D1A90ED010AB5EEA7
:1009F000C00AF1EE10FA02DD90ED010A04E08B4826
:100A000090ED010AB1EE400AF3EE0E0A80EE201AD4
:100A1000864880ED2E1A90ED020AB5EEC00AF1EE7E
:100A200010FA02DD90ED020A04E0804890ED020A1F
:100A3000B1EE400AF3EE0E0A80EE201A7B4880EDFC
:100A40002F1ADFED7C0A80EE880AD0ED000A90EDC7
:100A5000031A70EEC10A90ED161AF2EE041A21EE96
:100A6000211A60EE810A60EE200A90ED2D1A9FEDAA
:100A7000720ADFED721A01EE810A20EE800A80ED23
:100A80000C0ADFED6C0A80EE880AD0ED010A90EDC9
:100A9000041A70EEC10A90ED1A1AF2EE041A21EE51
:100AA000211A60EE810A60EE200A90ED2E1A9FED69
:100AB000620ADFED621A01EE810A20EE800A80ED03
:100AC0000D0ADFED5C0A80EE880AD0ED020A90ED97
:100AD000051A70EEC10A90ED1E1AF2EE041A21EE0C
:100AE000211A60EE810A60EE200A90ED2F1A9FED28
:100AF000520ADFED521A01EE810A20EE800A80EDE3
:100B00000E0A90ED170AD0ED000A60EE200A90ED73
:100B1000060A00EE880A80ED060A90ED1B0AD0ED69
:100B2000010A60EE200A90ED070A00EE880A80EDC7
:100B3000070A90ED1F0AD0ED020A60EE200A90ED40
:100B4000080A00EE880A80ED080A3D4890ED000A88
:100B5000F6EE000A20EE200AF3EE090A20EE200A43
:100B6000324880ED090A364890ED000AF6EE000A98
:100B700020EE200AF3EE090A20EE200A2B4880ED31
:100B80000A0A2F4890ED000AF6EE000A20EE200A2D
:100B9000F3EE090A20EE200A244880ED0B0A90EDBE
:100BA000060AD0ED090AF1EE600AB4EEE00AF1EEB1
:100BB00010FA04D290ED090AB1EE400A0FE01B488A
:100BC00090ED060AD0ED090AB4EEE00AF1EE10FA53
:100BD00002DD90ED090A02E0144890ED060A134880
:100BE00080ED060A90ED070AD0ED0A0AF1EE600AE0
:100BF000B4EEE00A26E0000090070020CDCC4C3E89
:100C0000240A00200000FA431809002024000020D4
:100C100000002042000016433C0000201F85EB51DD
:100C2000B81E094024090020340000205408002088
:100C3000380000200AD7A33B6666263F3333B33E15
:100C400028000020F1EE10FA04D290ED0A0AB1EE6D
:100C5000400A0FE0FC4890ED070AD0ED0A0AB4EE16
:100C6000E00AF1EE10FA02DD90ED0A0A02E0F64821
:100C700090ED070AF44880ED070A90ED080AD0EDE0
:100C80000B0AF1EE600AB4EEE00AF1EE10FA04D2BB
:100C900090ED0B0AB1EE400A0FE0EB4890ED080A28
:100CA000D0ED0B0AB4EEE00AF1EE10FA02DD90EDA1
:100CB0000B0A02E0E44890ED080AE34880ED080AD8
:100CC00090ED000ADFEDE10AB4EEE00AF1EE10FA71
:100CD00002D29FEDDE0A0FE0DB4890ED000ADFED67
:100CE000DC0AB4EEE00AF1EE10FA02DD9FEDD80A5C
:100CF00002E0D54890ED000AD34880ED000A90ED5F
:100D0000010ADFEDD20AB4EEE00AF1EE10FA02D2E7
:100D10009FEDCE0A0FE0CC4890ED010ADFEDCC0A42
:100D2000B4EEE00AF1EE10FA02DD9FEDC90A02E02E
:100D3000C54890ED010AC44880ED010A90ED020A11
:100D4000DFEDC20AB4EEE00AF1EE10FA02D29FED36
:100D5000BF0A0FE0BC4890ED020ADFEDBD0AB4EE19
:100D6000E00AF1EE10FA02DD9FEDB90A02E0B648A2
:100D700090ED020AB44880ED020A90ED000AD0ED31
:100D80000C0A30EE200AD0ED060A30EE200AD0ED33
:100D9000150A20EE200A80ED120A90ED010AD0ED2E
:100DA0000D0A30EE200AD0ED070A30EE200AD0ED11
:100DB000190A20EE200A80ED130A90ED020AD0ED08
:100DC0000E0A30EE200AD0ED080A30EE200AD0EDEF
:100DD0001D0A20EE200A80ED140A90ED000A80ED35
:100DE000030A90ED010A80ED040A90ED020A80EDFD
:100DF000050ABDEC0E8B10BD10B52DED048B8AB02D
:100E0000F0EE408AB0EE609AB0EE418A9FED910A12
:100E1000B4EEC08AF1EE10FA02D29FED8E0A0BE01A
:100E20009FED8D0AB4EEC08AF1EE10FA02DD9FED5F
:100E30008A0A01E0B0EE480AB0EE408AB1EE680AD4
:100E400030EE090A30EE080A8DED040A38EE890A00
:100E500030EE480A8DED050A38EEC90A30EE080A70
:100E60008DED060AB1EE680A30EE490A30EE480A06
:100E70008DED070A002429E004A800EB840090ED22
:100E8000000ADFED760AB4EEE00AF1EE10FA02D2C3
:100E90009FED720A13E004A800EB840090ED000AB5
:100EA000DFED6F0AB4EEE00AF1EE10FA02DD9FED1D
:100EB0006C0A04E004A800EB840090ED000A04A88A
:100EC00000EB840080ED000A601CC4B2042CD3DB6C
:100ED0009DED040AB5EEC00AF1EE10FA02DD9DEDBB
:100EE000040A03E09DED040AB1EE400ADFED5D0A5D
:100EF00060EE200A9FED5A1A80EE810ADFED5A0A51
:100F000030EE200ADDED040A20EE200A8DED000A05
:100F10009DED050AB5EEC00AF1EE10FA02DD9DED79
:100F2000050A03E09DED050AB1EE400ADFED4D0A2A
:100F300060EE200A9FED4A1A80EE810ADFED4A0A30
:100F400030EE200ADDED050A20EE200A8DED010AC3
:100F50009DED060AB5EEC00AF1EE10FA02DD9DED38
:100F6000060A03E09DED060AB1EE400ADFED3D0AF8
:100F700060EE200A9FED3A1A80EE810ADFED3A0A10
:100F800030EE200ADDED060A20EE200A8DED020A81
:100F90009DED070AB5EEC00AF1EE10FA02DD9DEDF7
:100FA000070A03E09DED070AB1EE400ADFED2D0AC6
:100FB00060EE200A9FED2A1A80EE810ADFED2A0AF0
:100FC00030EE200ADDED070A20EE200A8DED030A3F
:100FD000DDED000A254890ED000A254890ED001A45
:100FE00001EE200A234880ED000ADDED010A1F48CA
:100FF00090ED000A1E4890ED001A01EE200A1D48EF
:1010000080ED010ADDED020A184890ED000A18484B
:1010100090ED001A01EE200A164880ED020ADDED7F
:10102000030A124890ED000A114890ED001A01EEF3
:10103000200A104880ED030A0F48007878B30F4863
:10104000007868BB002447E0540800200000B4C2C8
:101050000000B4420000C8C30000C84300007AC4C6
:1010600000007A446666E63ECDCC0C3F20000020AE
:101070002800002064090020B00400202400002083
:10108000FE4800EB840090ED000ADFEDFD0AB4EEAF
:10109000E00AF1EE10FA04D29FEDF90A15E04BE0F8
:1010A0001DE0F64800EB840090ED000A5FED140AA5
:1010B000B4EEE00AF1EE10FA02DD1FED170A04E0CB
:1010C000EE4800EB840090ED000AEC4800EB840051
:1010D00080ED000A601CC4B2042CD1DB39E000248E
:1010E00027E0E64800EB840090ED000AB5EEC00A68
:1010F000F1EE10FA02D29FEDE30A13E0DF4800EBB5
:10110000840090ED000A5FED2A0AB4EEE00AF1EEE9
:1011100010FA02DD1FED2E0A04E0D84800EB84002F
:1011200090ED000AD54800EB840080ED000A601CB9
:10113000C4B2042CD5DB0CE0002408E09FEDD10AFA
:10114000CE4800EB840080ED000A601CC4B2042C81
:10115000F4DBCA4890ED000ABDEEC00A10EE100A9A
:1011600000B2ADF82000C54890ED010ABDEEC00AFE
:1011700010EE100A00B2ADF82200C04890ED020A4D
:10118000BDEEC00A10EE100A00B2ADF82400BB4854
:1011900090ED030ABDEEC00A10EE100A00B2ADF8E1
:1011A00026004FF47A72002108A804F02AFE0AB043
:1011B000BDEC048B10BD10B52DED028BB0EE408A56
:1011C000B14890ED020ADFEDB10A30EE200AB048D6
:1011D00080ED000A90ED000A5FED610A80EE201AB2
:1011E000AC4890ED000A71EE400A9FEDAB0A28EE84
:1011F000001A90ED000A01EE200A80ED000A90ED41
:10120000000AB5EEC00AF1EE10FA02D29FED9D0A77
:101210000FE0A04890ED000AF7EE000AB4EEE00AF5
:10122000F1EE10FA02DDB7EE000A02E0994890ED07
:10123000000A9A4880ED000A954890ED000ADFED1B
:10124000980AB4EEE00AF1EE10FA03D201209549B3
:10125000087002E00020934908708D48D0ED000A24
:10126000B0EE480A03F014FF8F48007820B1884898
:1012700090ED000A03F012FD8C4890ED000A8C48B6
:1012800080ED000A90ED000AB5EEC00AF1EE10FA0A
:1012900002D29FED7C0A0FE0854890ED000ADFED59
:1012A000850AB4EEE00AF1EE10FA02DD9FED810A44
:1012B00002E07F4890ED000A7D4880ED000ABDEC19
:1012C000028B10BD00B52DED028B83B0B0EE408ACD
:1012D000794890ED120AF3EE0E0A80EE201A9FED87
:1012E000770A21EE000A8DED000AD0ED130AB3EE65
:1012F0000E1A80EE810ADFED710A20EE200A8DEDD4
:10130000010A90ED140AF3EE0E0A80EE201A9FED0A
:101310006B0A21EE000A8DED020A9DED000A684875
:1013200080ED000A9DED010A80ED010A9DED020AA3
:1013300080ED020A90ED000ADFED620AB4EEE00AE9
:10134000F1EE10FA02D29FED5F0A0FE05C4890EDDB
:10135000000ADFED5A0AB4EEE00AF1EE10FA02DDFF
:101360009FED560A02E0564890ED000A544880ED81
:10137000000A90ED010ADFED530AB4EEE00AF1EE47
:1013800010FA02D29FED4F0A0FE04D4890ED010A8E
:10139000DFED4A0AB4EEE00AF1EE10FA02DD9FED4D
:1013A000470A02E0464890ED010A454880ED010AEF
:1013B00090ED020ADFED430AB4EEE00AF1EE10FA16
:1013C00002D29FED400A0FE03D4890ED020ADFEDAA
:1013D0003B0AB4EEE00AF1EE10FA02DD9FED370AA7
:1013E00002E0374890ED020A354880ED020ADFED51
:1013F000360A80EE880A3548D0ED0A0A344890ED66
:10140000001A70EEC10A20EE200A324880ED0F0A61
:10141000DFED2D0A80EE880A2C48D0ED0B0AF1EEA4
:10142000600A2B4890ED011A70EEC10A20EE200AE6
:10143000284880ED100ADFED240A80EE880A234850
:10144000D0ED0C0AF1EE600A214890ED021A70EE20
:10145000C10A20EE200A1F4880ED110A184890EDBD
:10146000000A1A48D0ED0A0A30EE600AF7EE000AC8
:1014700020EE200A174880ED000A2DE064090020C4
:101480000000484300000000240A00200000FA4346
:101490002C000020300000203433FB4128000020C5
:1014A0000000C84224000020010500204C05002057
:1014B000200000200000484454080020000096430B
:1014C0003C090020000096C36F12033B080C00206B
:1014D0004809002090070020FE4890ED010AFE48D0
:1014E000D0ED0B0A30EE200AF7EE000A20EE200ABB
:1014F000FA4880ED010AF74890ED020AF648D0ED6F
:101500000C0A30EE200AF7EE000A20EE200AF3481B
:1015100080ED020A90ED000AB5EEC00AF1EE10FA75
:1015200002DD90ED000A04E0EC4890ED000AB1EE17
:10153000400A5FED1E0A80EE201AE84880ED2D1A61
:1015400090ED010AB5EEC00AF1EE10FA02DD90ED61
:10155000010A04E0E14890ED010AB1EE400A5FEDB6
:10156000290A80EE201ADD4880ED2E1A90ED020A3D
:10157000B5EEC00AF1EE10FA02DD90ED020A04E0C9
:10158000D64890ED020AB1EE400ADFEDD50A80EEB2
:10159000201AD24880ED2F1A5FED350A80EE880AB6
:1015A000D0ED160A90ED0F1AFAEE041A21EE211A68
:1015B00060EE810A20EE200A80ED0C0A5FED3E0A03
:1015C00080EE880AD0ED1A0A90ED101AFAEE041A8D
:1015D00021EE211A60EE810A20EE200A80ED0D0A2C
:1015E0005FED470A80EE880AD0ED1E0A90ED111AD1
:1015F000FAEE041A21EE211A60EE810A20EE200A8A
:1016000080ED0E0A90ED000AD0ED0F0A30EE600A70
:10161000D0ED170A60EE200A90ED060A00EE880A67
:1016200080ED060A90ED010AD0ED100A30EE600A56
:10163000D0ED1B0A60EE200A90ED070A00EE880A42
:1016400080ED070A90ED020AD0ED110A30EE600A33
:10165000D0ED1F0A60EE200A90ED080A00EE880A1D
:1016600080ED080A9F4890ED000AF6EE000A20EE91
:10167000200A5FED6E0A20EE200A984880ED090AE4
:10168000984890ED000AF6EE000A20EE200A5FED81
:10169000750A20EE200A914880ED0A0A914890EDE3
:1016A000000AF6EE000A20EE200A5FED7C0A20EE2A
:1016B000200A8A4880ED0B0A90ED060AD0ED090A4F
:1016C000F1EE600AB4EEE00AF1EE10FA04D290ED09
:1016D000090AB1EE400A0FE0804890ED060AD0ED0D
:1016E000090AB4EEE00AF1EE10FA02DD90ED090A03
:1016F00002E07A4890ED060A784880ED060A90EDFF
:10170000070AD0ED0A0AF1EE600AB4EEE00AF1EE43
:1017100010FA04D290ED0A0AB1EE400A0FE06F48C9
:1017200090ED070AD0ED0A0AB4EEE00AF1EE10FAE5
:1017300002DD90ED0A0A02E0684890ED070A67486A
:1017400080ED070A90ED080AD0ED0B0AF1EE600A71
:10175000B4EEE00AF1EE10FA04D290ED0B0AB1EE0D
:10176000400A0FE05D4890ED080AD0ED0B0AB4EE98
:10177000E00AF1EE10FA02DD90ED0B0A02E05748A4
:1017800090ED080A554880ED080A90ED300AF7EE12
:10179000000A30EEC00AD0ED150A20EE200AD0ED86
:1017A000000A90ED0C1A70EE810A90ED061A70EEA8
:1017B000810A60EE200A90ED301A4B48D0ED2D1AC8
:1017C0009FED4A0A9FED4A2A02EE210AB5EEC00AB1
:1017D000F1EE10FA02D21FEDD50A1BE04248D0ED1F
:1017E0002D1A9FED420A9FED422A02EE210AF7EEE2
:1017F000001AB4EEE10AF1EE10FA02DDB7EE000ACB
:1018000008E03948D0ED2D1A9FED380A9FED382AAF
:1018100002EE210A21EE000A2E4890ED001A40EE59
:10182000010AB0EE080A20EE800A2C4880ED120A68
:1018300090ED300AF7EE000A30EEC00AD0ED190A3A
:1018400020EE200AD0ED010A90ED0D1A70EE810A0B
:1018500090ED071A70EE810A60EE200A90ED301AC2
:101860002148D0ED2E1A9FED210A9FED212A02EE8C
:10187000210AB5EEC00AF1EE10FA02D29FED1D0A60
:101880001BE01948D0ED2E1A9FED180A9FED182A7B
:1018900002EE210AF7EE001AB4EEE10AF1EE10FAB8
:1018A00002DDB7EE000A08E00F48D0ED2E1A9FEDDA
:1018B0000F0A9FED0F2A02EE210A21EE000A0548C9
:1018C00090ED011A40EE010AB0EE080A20EE800AFF
:1018D000024811E03C090020080C0020900700207D
:1018E0000000164328000020540800206666E63EEB
:1018F000CDCC0C3F0000000080ED130A90ED300AC3
:10190000F7EE000A30EEC00AD0ED1D0A20EE200AE4
:10191000D0ED020A90ED0E1A70EE810A90ED081AD1
:1019200070EE810A60EE200A90ED301A3A48D0ED50
:101930002F1A1FED120A1FED122A02EE210AB5EE30
:10194000C00AF1EE10FA02D21FED160A1BE032486F
:10195000D0ED2F1A1FED1B0A1FED1B2A02EE210AE4
:10196000F7EE001AB4EEE10AF1EE10FA02DDB7EE7E
:10197000000A08E02848D0ED2F1A1FED240A1FEDB9
:10198000242A02EE210A21EE000A244890ED021AD0
:1019900040EE010AB0EE080A20EE800A204880EDF1
:1019A000140AB0EE480AFFF706FC1D48D0ED141AE1
:1019B000B0EE611AD0ED131AF0EE610AD0ED121AF2
:1019C000B0EE610AFFF718FA154890ED000A80EDB5
:1019D000030A90ED010A80ED040A90ED020A80ED01
:1019E000050A104890ED0A0A0F4880ED000A0D48DC
:1019F00090ED0B0AB1EE400A0B4880ED010A094850
:101A000090ED0C0AB1EE400A074880ED020A03B0DF
:101A1000BDEC028B00BD0000540800203C090020F2
:101A200090070020080C00204809002070B52DED1B
:101A3000108BB0EE408AB0EE60EAF0EE41EAB0EE14
:101A400061FAF0EE429AB0EE629AF0EE438A0446F2
:101A50000D4616469FEDFB0A28EE000AF3EE040A37
:101A600020EE200AF0EE40AAF748D0ED080A60EE1A
:101A7000A00A90ED091AD0ED091A41EE210A90ED65
:101A80000A1AD0ED0A1A41EE210AB0EE600A00F0FF
:101A900006FDEE4880ED000A90ED000AB5EEC00AA2
:101AA000F1EE10FA38D0E84890ED080AE748D0ED9A
:101AB000000A80EE201AE64890ED000A71EE400A16
:101AC00090ED000A0AEEA00A80ED000ADE4890EDD3
:101AD000090ADE48D0ED000A80EE201ADC4890EDBD
:101AE000010A71EE400A90ED010A0AEEA00A80EDAB
:101AF000010AD548D0ED0A0AD44890ED001A80EECC
:101B0000810AD348D0ED020A70EE600A90ED020A15
:101B10000AEEA00A80ED020ACE4ACD49CE4802F074
:101B2000E8FFCC48D0ED000A60EEA00A90ED011A63
:101B3000D0ED011A41EE210AB0EE600A00F0AFFCD0
:101B4000C64880ED000AC34890ED000AB5EEC00A11
:101B5000F1EE10FA36D090ED010AB5EEC00AF1EEC2
:101B600010FA2FD090ED020AB5EEC00AF1EE10FA8D
:101B700028D0BA4890ED000AB5EEC00AF1EE10FA8E
:101B800020D0B44890ED000AB448D0ED000A80EEB1
:101B9000201AB0EE41BAAF4890ED010AAF48D0ED3F
:101BA000000A80EE201AF0EE41BAF0EE4B0AB0EED9
:101BB0006B0A00F0B4FBDFEDAA0A20EE200AA94868
:101BC00080ED000AA84890ED010AD0ED030A20EE4E
:101BD000200AD0ED000A90ED021A00EEC10AF0EEE4
:101BE000000A20EE200A9C4880ED000A9E4890EDF5
:101BF000000AD0ED010A20EE200AD0ED020A90ED95
:101C0000031A00EE810AF0EE000A20EE200A924844
:101C100080ED010A944890ED010A20EE000AD0ED13
:101C2000020A90ED021A00EE810AF7EE000AB0EE09
:101C3000001A41EE400A8848C0ED020A69EEA90A7E
:101C400049EE090A48EEA80AB0EE600A00F027FC47
:101C5000864880ED000A9FED7B0A28EE000AF2EE2E
:101C6000040A60EE200A90ED000A814890ED001A07
:101C700030EE411A90ED000A00EE810A80ED000A74
:101C8000F5EEC09AF1EE10FA02DDB0EE690A01E05D
:101C9000B1EE690ADFED770AB4EEE00AF1EE10FA70
:101CA0007DD2B5EEC09AF1EE10FA02DDB0EE490A2F
:101CB00001E0B1EE490ADFED6F0AB4EEE00AF1EEA1
:101CC00010FA78D2F5EEC08AF1EE10FA02DDB0EE2D
:101CD000680A01E0B1EE680ADFED660AB4EEE00AD8
:101CE000F1EE10FA67D2614890ED000AC9EE800A61
:101CF000F0EE609A90ED000AC9EE000AB0EE609A2C
:101D000090ED000AC8EE800AF0EE608A90ED000ABD
:101D1000DFED590AB4EEE00AF1EE10FA54DD90ED71
:101D2000000ADFED540AB4EEE00AF1EE10FA4BD2ED
:101D3000494890ED020A20EE090AD0ED010A08EEAA
:101D4000E00A4E4880ED030A434890ED000A20EE79
:101D5000280AD0ED020A09EEE00A484880ED040A9C
:101D60009FED380A28EE000AF7EE000A20EE20AABE
:101D700090ED030AD0ED060A70EE600A90ED060AB7
:101D80000AEE200A80ED060A90ED040AD0ED070A5B
:101D900070EE600A90ED070A0AEE200A00E00AE001
:101DA00080ED070A90ED060A80ED000A90ED070A23
:101DB00080ED010A08E09FED320A304880ED000A0C
:101DC0009FED2F0A80ED010A2C4890ED090AD0ED15
:101DD000000A9FED2C1A60EE810AB0EE001A60EE48
:101DE000810A00EE880A80ED090A90ED0A0AD0ED1A
:101DF000010A9FED241A60EE810AB0EE001A60EE2F
:101E0000810A00EE880A80ED0A0A90ED0B0AD0EDF7
:101E1000020A9FED1C1A60EE810AB0EE001A60EE15
:101E2000810A00EE880A80ED0B0A90ED090ADFEDC9
:101E3000160AB4EEE00AF1EE10FA27D29FED120A6C
:101E400034E00000C3F5C840E80500206000002031
:101E5000E8090020DC090020940900205C00002033
:101E6000333365426800002040000020500000200D
:101E7000580000200080894500806D45A0090020A1
:101E800000000000CDCCCC3D34FA0EBDFE4890EDF4
:101E9000090ADFEDFE0AB4EEE00AF1EE10FA02DD07
:101EA0009FEDFA0A02E0F84890ED090AF64880ED45
:101EB000090A90ED0A0A5FED0C0AB4EEE00AF1EEB1
:101EC00010FA02D21FED100A0FE0EF4890ED0A0A57
:101ED000DFEDEE0AB4EEE00AF1EE10FA02DD9FED5E
:101EE000EB0A02E0E84890ED0A0AE74880ED0A0AAA
:101EF00090ED0B0A5FED1C0AB4EEE00AF1EE10FA69
:101F000002D21FED1F0A0FE0DF4890ED0B0ADFED54
:101F1000DF0AB4EEE00AF1EE10FA02DD9FEDDB0A13
:101F200002E0D94890ED0B0AD74880ED0B0AD8485B
:101F300090ED020AB5EEC00AF1EE10FA29DDD5489F
:101F4000007898B1D448D0ED000AD44890ED001A3A
:101F500070EEC10AB0EE600A00F03CFCDFEDD00A82
:101F600020EE200ACF4880ED000A12E0CA48D0EDEA
:101F7000000ACA4890ED001A70EEC10AB0EE600A7D
:101F800000F028FCDFEDC80A20EE200AC54880EDED
:101F9000000ABD4890ED000AD0ED090A30EE200A93
:101FA000DFEDC20A20EE200AB94890ED001ABD48C4
:101FB000D0ED001AF0EE4E0A41EE610A9FEDBC1A18
:101FC00000EE810AB04880ED0C0A90ED010AD0EDD8
:101FD0000A0A30EE200ADFEDB50A20EE200AAC48EE
:101FE00090ED011AAF48D0ED001AF0EE6E0A41EE06
:101FF000610A9FEDAF1A00EE810AA34880ED0D0A39
:10200000A348D0ED020AA74890ED001AB0EE4F0A9F
:1020100000EEC10ADFEDA60A20EE200A9A4880ED04
:102020000E0AA44890ED010AB1EE400A9648D0EDA0
:102030000C0A20EE200A9F48D0ED020A924890ED4B
:102040000D1A00EEC10A9B48D0ED030A8E4890EDB0
:102050000E1A00EEC10A9748D0ED000A40EE080AB9
:10206000C0ED000A90ED000A8748D0ED0C0A20EE82
:10207000200A9048D0ED020A834890ED0E1A00EE37
:10208000810A8C48D0ED030A7F4890ED0D1A00EECE
:10209000C10A8848D0ED010A40EE080AC0ED010AE5
:1020A00090ED000A7848D0ED0D0A20EE200A814814
:1020B000D0ED010A744890ED0E1A00EEC10A7D4879
:1020C000D0ED030A704890ED0C1A00EE810A7948B1
:1020D000D0ED020A40EE080AC0ED020A90ED000AB7
:1020E0006948D0ED0E0A20EE200A7248D0ED010AB0
:1020F000654890ED0D1A00EE810A6E48D0ED020A97
:10210000614890ED0C1A00EEC10A6A48D0ED030A4E
:1021100040EE080AC0ED030AD0ED000A60EEA00A06
:1021200090ED011AD0ED011A41EE210A90ED021A4C
:10213000D0ED021A41EE210A90ED031AD0ED031AF8
:1021400041EE210AB0EE600A00F0A9F95A4880ED8C
:10215000000A584890ED000A5748D0ED000A80EE7A
:10216000201A544880ED001A90ED010A5248D0ED33
:10217000000A80EE201A4F4880ED011A90ED020A05
:102180004D48D0ED000A80EE201A4A4880ED021A30
:1021900090ED030A4848D0ED000A80EE201A454829
:1021A00080ED031A90ED011A21EE011AD0ED021A0A
:1021B00090ED022A01EE821AF7EE001AB0EE002A24
:1021C00042EE411AF0EE610A90ED001AD0ED011ACC
:1021D00021EE211AD0ED021A90ED032A01EE821AA7
:1021E000F0EE001A21EE211AB0EE410A00F097F845
:1021F0005FEDE50A20EE200A84ED000A2D4890EDFF
:10220000010AD0ED030A20EE200AD0ED000A90ED7D
:10221000021A00EEC10AF0EE000A20EE200A10EECB
:10222000101A08460AF0F0FF41EC1D0BB0EE4D0A03
:10223000F0EE6D0A0BF024FAB0EE40CAF0EE60CA80
:102240009FED1E0B53EC102B51EC1C0B0AF059FFA9
:1022500041EC1B0B0BF01CF82860164890ED001A9F
:1022600021EE011AD0ED011A90ED012A01EE821A39
:10227000F7EE001AB0EE002A52EE011AF0EE610AF3
:1022800090ED011A1EE00000A009002034FA0E3D76
:1022900094090020B0040020680000203C000020C9
:1022A00090C2F53D640000206766663F9A99193F29
:1022B00034FA8E3C400000205400002000000060F2
:1022C00066A64C40B1EE411AD0ED021A21EE211A59
:1022D000D0ED001A90ED032A01EEC21AF0EE001ABA
:1022E00021EE211AB0EE410A00F019F8DFED040AE0
:1022F00020EE200A86ED000ABDEC108B70BD0000B8
:1023000033336542F0EE400AF5EEC00AF1EE10FA02
:1023100002DBB0EE600A7047B1EE600AFBE700B581
:10232000B0EE403AB0EE602AB5EEC03AF1EE10FAE7
:1023300007D1B5EEC02AF1EE10FA02D19FEDFD1AD9
:1023400099E0B0EE430AFFF7DDFFF0EE403AB0EE61
:10235000420AFFF7D7FFF0EE402AF4EEE23AF1EE40
:1023600010FA02D283EEA24A01E082EEA34A9FED68
:10237000F20AB4EEC04AF1EE10FA02D2F0EE441ABC
:102380002DE0DFEDEE0AB6EE000A14EE200AF0EEC4
:10239000404ABDEEE40A10EE100A00EE100AB8EE54
:1023A000C00A34EEC00AF0EE404AE54901EB800174
:1023B00091ED000AF0EE401AE14A411C02EB810166
:1023C00091ED000A114601EB8001D1ED000A70EE9B
:1023D000600AB0EE610A00EEA40AF0EE401AF4EED4
:1023E000E32AF1EE10FA20DDB5EEC02AF1EE10FA84
:1023F0000ADBB5EEC03AF1EE10FA02DBB0EE611A7C
:1024000039E0B1EE611A36E09FEDCE1AB5EEC03A72
:10241000F1EE10FA04DB31EE610AB0EE401A2AE068
:1024200031EEC10AB0EE401A25E0B5EEC03AF1EE49
:1024300010FA10DB9FEDC41AB5EEC02AF1EE10FAC7
:1024400004DB31EE610AB0EE401A14E031EE210AED
:10245000B0EE401A0FE09FEDBD1AB5EEC02AF1EEC6
:1024600010FA04DB31EE210AB0EE401A03E031EE3F
:10247000610AB0EE401AB0EE410A00BD00B5B0EE00
:10248000405AF0EE605AF0EE450AB0EE650AFFF7EA
:1024900046FF00BDF0EE400A20EEA00A7047B0EE05
:1024A000401AB7EE080AB0EE402AB6EE000A21EE56
:1024B000000AF0EE401AF0EE410A10EE900AA4492C
:1024C000A1EB600000EE900A61EEA02AB7EE080AC8
:1024D00002EEE00A20EE200AF0EE400A61EEA02AA9
:1024E000B7EE080A02EEE00A20EE200AF0EE400AFB
:1024F00021EE200A704710B52DED0A8BB0EE409A00
:10250000F0EE609A9FED930B53EC102B51EC190BEE
:102510000AF08EFE18D29FED910B53EC102B51EC6C
:10252000190B0AF0EEFD41EC1B0B9FED8E0B53ECEB
:10253000102B0AF03FFD41EC1A0B53EC192B0AF05B
:10254000E0FD41EC180B17E09FED840B53EC102BD2
:1025500051EC190B0AF0D5FD41EC1B0B9FED810BE3
:1025600053EC102B0AF0CAFD41EC1A0B53EC192B5B
:102570000AF0C7FD41EC180B9FED760B53EC102BC6
:1025800051EC180B0AF054FE20D29FED780B53EC5F
:10259000102B51EC180B0AF00DFD41EC1C0B9FEDBC
:1025A000750B53EC102B0AF0ACFD41EC1B0B9FEDAF
:1025B0006F0B53EC102B0AF0FDFC41EC1A0B53ECA3
:1025C000182B0AF09EFD41EC180B1FE09FED670BE6
:1025D00053EC102B51EC180B0AF08DFD41EC1C0B49
:1025E0009FED660B53EC102B0AF08BFD41EC1B0B9F
:1025F0009FED5E0B53EC102B0AF0DCFC41EC1A0B48
:1026000053EC182B0AF07DFD41EC180BB0EE480A94
:10261000F0EE680ABDEC0A8B10BD10B52DED068BEF
:10262000B0EE408AF0EE608A01249FED560B53EC29
:10263000102B51EC180B0AF013FE0AD89FED510B2A
:1026400053EC102B51EC180B0AF055FD41EC180B14
:10265000A41E20460AF0C7FD41EC190BB0EE480A53
:10266000F0EE680AFFF747FFB0EE40AAF0EE60AA6E
:1026700053EC192B51EC1A0B0AF043FD41EC100BF3
:10268000BDEC068B10BD10B52DED088BB0EE408A69
:10269000F0EE608A01249FED3D0B53EC102B51ECC2
:1026A000180B0AF087FC41EC180B9FED360B53EC2E
:1026B000102B51EC180B0AF0D3FD0AD8A41E9FED85
:1026C000310B53EC102B51EC180B0AF014FD41ECBC
:1026D000180B20460AF087FD41EC1A0BB0EE480AB1
:1026E000F0EE680AFFF799FFB0EE40BAF0EE60BA7C
:1026F00053EC1A2B51EC1B0B0AF003FD41EC190BA8
:102700000AF0C6FD00EE100ABDEC088B10BDB0EE5D
:10271000401AB5EEC01AF1EE10FA3BDD31EE600A58
:10272000B5EEC00AF1EE10FA3FD2DFED021AB0EEBC
:10273000610A3AE0000000008180803B0000804395
:102740006C000020DB0F4940DB0FC93FDB0FC9BF26
:10275000DF59375F0000000000000000000000604B
:102760002FF0D93F00000060305FF43F0000000010
:102770000000F03F000000C0CCCCCCBF000000C087
:10278000CCCCCC3FF1D4C853FB210940F1D4C85381
:10279000FB21F93F31EE200AB5EEC00AF1EE10FA46
:1027A00003DD5FED1C1AB0EE610A7047B0EE401A0F
:1027B000F1EE601AB4EEE11AF1EE10FA07DDB4EEB4
:1027C000E01AF1EE10FA02D21FED260A01E0B0EE97
:1027D000410A7047F0EE400A9FED210AF4EEC00A6C
:1027E000F1EE10FA04DD9FED1F0A30EEC00A7047CB
:1027F0009FED1D0AF4EEC00AF1EE10FA04D29FED2F
:10280000190A30EE800AF2E7B0EE600AEFE7F0EE68
:10281000401AB7EE000AF4EEC00AF1EE10FA04DC3A
:10282000F5EEC00AF1EE10FA02D21FED3E0A704733
:1028300081EE810AB5EEC00AF1EE10FA02DD81EEFA
:10284000810A03E081EE810AB1EE400A20EE202ADF
:10285000B7EE000A30EE600A02EE210AE7E7000058
:10286000000034430000B443000034C3024600209B
:1028700007E0F94B1B5632F8133021F81030431C97
:10288000D8B20828F5DB7047F448D0ED020A9FED76
:10289000F41AF4EEC10AF1EE10FA51D2D0ED030AA7
:1028A0009FEDEF1AF4EEC10AF1EE10FA1AD2ED48DC
:1028B000B0F90000401CC8B3EB480078B0B3E94859
:1028C000B0F9000000EE900AF8EEE00A9FEDE71A7A
:1028D00041EE000AFDEEE00A10EE900A00B2E14976
:1028E000088030E0DD48D0ED030A9FEDE11AF4EEF8
:1028F000C10AF1EE10FA1ADDDA48B0F90000401C06
:10290000A0B1D948007888B9D648B0F9000000EEE7
:10291000900AF8EEE00A9FEDD51A41EE000AFDEEAE
:10292000E00A10EE900A00B2CE4908800BE0CD48D4
:10293000B0F90000401C30B90020CA49088002E00C
:102940000020C8490880C748B0F90000B0F57A7F78
:1029500010DD4FF0FF30C3490880C348007830B91C
:102960000120C14908700220C249487002E00020DD
:10297000BD49087070470FB5F0EE401A0346BE48D7
:102980000088BE490880BC48408848809888888074
:10299000B948C088C880002206E2B84830F8120062
:1029A00040F6C411884205DCB44830F81200B0F596
:1029B000FA7F07DA0120B24988540020B14921F892
:1029C000120012E0AF4830F81200401CAD4921F867
:1029D0001200084630F81200C82806DD4FF4FA60ED
:1029E00021F812000020A6498854A7480078012841
:1029F00003D0A548007802287BD1A148805C00283C
:102A0000FAD19E4830F812002DF812009F4830F994
:102A100012009F4931F9121088426BDD9D48805C9D
:102A2000002878D13DF81200994931F91210401A66
:102A300000EE100AB8EEC01A944830F9120094491A
:102A400031F91210401A00EE100AB8EEC00AC1EEB9
:102A5000000A9FED861A9FED900A10EE810ABDEEE6
:102A6000C00A10EE100A00B210F5FA7F01DA8B48A6
:102A70004DE03DF81200864931F91210401A00EE7F
:102A8000100AB8EEC01A814830F91200804931F9B5
:102A90001210401A00EE100AB8EEC00AC1EE000A89
:102AA0009FED721A9FED7C0A10EE810ABDEEC00AFE
:102AB00010EE100A00B2B0F5FA7F02DD4FF4FA70A2
:102AC00025E03DF81200724931F91210401A00EE6B
:102AD000100AB8EEC01A6D4830F912006C4931F98D
:102AE0001210401A00EE100AB8EEC00AC1EE000A39
:102AF00002E08AE086E00EE09FED5C1A9FED660A38
:102B000010EE810ABDEEC00A10EE100A00B2644950
:102B100021F8120079E03DF812005D4931F91210F8
:102B2000401A00EE100AB8EEC01A584830F91200E8
:102B3000574931F91210401A00EE100AB8EEC00AD7
:102B4000C1EE000A9FED491A9FED530A10EE810A6B
:102B5000BDEEC00A10EE100A00B210F5FA7F01DADD
:102B60004E4849E03DF81200494931F91210401A27
:102B700000EE100AB8EEC01A444830F91200444979
:102B800031F91210401A00EE100AB8EEC00AC1EE78
:102B9000000A9FED361A9FED400A10EE810ABDEE45
:102BA000C00A10EE100A00B2B0F5FA7F02DD4FF451
:102BB000FA7021E03DF81200354931F91210401A3F
:102BC00000EE100AB8EEC01A304830F91200304951
:102BD00031F91210401A00EE100AB8EEC00AC1EE28
:102BE000000A9FED221A9FED2C0A10EE810ABDEE1D
:102BF000C00A10EE100A00B2404200B2284921F883
:102C0000120002E00020184908709FED260A21EE0C
:102C1000800A254880ED000A3DF8120000EE100AF7
:102C2000B8EE400A0D4800EB8200D0ED000A30EE0D
:102C3000600AB5EEC00AF1EE10FA37DD3DF8120079
:102C400000EE100AB8EE400A044800EB8200D0ED16
:102C5000000A30EE600A38E070040020240A0020E8
:102C60000000C8C3B2040020B004002000007A4471
:102C70000000C843080C0020E80A0020940A002045
:102C800079040020840A00207804002084040020B5
:102C900094040020A40400200000FA430CFEFFFF6F
:102CA000F409002034337B42AC0400203DF81200CC
:102CB00000EE100AB8EE400A494800EB8200D0ED61
:102CC000000A30EE600AB1EE400ADFED460AB4EECB
:102CD000E00AF1EE10FA1DD2434830F9120000EE7E
:102CE000100AB8EEC00A3E4800EB8200D0ED000AA0
:102CF00070EE600A3A4800EB820090ED000A3B4813
:102D000090ED001A01EE200A354800EB820080EDBC
:102D1000000A20E0344830F9120000EE100AB8EE44
:102D2000C00A2F4800EB8200D0ED000A70EE600A66
:102D30002B4800EB820090ED000A2C4890ED001A21
:102D4000B6EE002A21EE021A01EE200A244800EB1A
:102D5000820080ED000A224800EB820090ED000A1C
:102D6000234800EB8200D0ED000A30EE600A2148D3
:102D700000EB820080ED000A194800EB820090ED24
:102D8000000A1B4800EB820080ED000A164830F96B
:102D9000120000EE100AB8EEC00A174800EB8200DD
:102DA00080ED000A501CC2B2082AFFF6F6ADB0EE64
:102DB000610AFFF769FD11480088401C80B20F4985
:102DC0000880C82803DD002008800D4908700FBD69
:102DD0000B4908700021094A1180704770470000B4
:102DE000240A00200000C842F4090020AC0400209E
:102DF000440A0020640A0020040A00208204002003
:102E00007804002070B505460C462146F84804F0C9
:102E100078F970BD2DE9F0432DED028B83B00546A6
:102E20000E4617469846B0EE408A0024AA22214654
:102E3000641CEF4842542146641C4254042221463B
:102E4000641C425400222146641C42542146641CE6
:102E500045542146641C465401979DF8072021469D
:102E6000641C42549DF806202046611CCCB2E04907
:102E70000A549DF805202046611CCCB2DC490A5456
:102E80009DF804202046611CCCB2D9490A54CDF8E3
:102E900004809DF807202046611CCCB2D4490A5416
:102EA0009DF806202046611CCCB2D1490A549DF8F9
:102EB00005202046611CCCB2CD490A549DF804205F
:102EC0002046611CCCB2CA490A549FEDCA0A28EEBA
:102ED000000ABDEEC00A10EE100A00B202909DF882
:102EE00009202046611CCCB2C1490A549DF8082033
:102EF0002046611CCCB2BE490A54201FC8704FF056
:102F00000009002006E0BA49095C494401F0FF09C4
:102F1000411CC8B2A042F6DB2046611CCCB2B449C9
:102F200001F800902146B248FFF76CFF03B0BDECFA
:102F3000028BBDE8F08370B52DED0A8B82B005469B
:102F4000B0EE408AF0EE608AB0EE419AF0EE619AFF
:102F5000B0EE42AAF0EE62AAB0EE43BAF0EE63BA67
:102F6000B0EE44CA0024AA222146641CA048425460
:102F70002146641C425405F10F00C2B22146641C74
:102F80009B48425400222146641C42549FED9A0AF9
:102F900028EE000ABDEEC00A10EE100A00B2019041
:102FA0009DF805202146641C914842549DF8042058
:102FB0002146641C42549FED900A28EE800ABDEE23
:102FC000C00A10EE100A00B201909DF805202146BB
:102FD000641C874842549DF804202046611CCCB2F2
:102FE00083490A549FED840A29EE000ABDEEC00A07
:102FF00010EE100A00B201909DF805202046611CD9
:10300000CCB27B490A549DF804202046611CCCB206
:1030100077490A549FED780A29EE800ABDEEC00A6E
:1030200010EE100A00B201909DF805202046611CA8
:10303000CCB26F490A549DF804202046611CCCB2E2
:103040006B490A549FED6C0A2AEE000ABDEEC00AD5
:1030500010EE100A00B201909DF805202046611C78
:10306000CCB263490A549DF804202046611CCCB2BE
:103070005F490A549FED600A2AEE800ABDEEC00A3D
:1030800010EE100A00B201909DF805202046611C48
:10309000CCB257490A549DF804202046611CCCB29A
:1030A00053490A549FED540A2BEE000ABDEEC00AA4
:1030B00010EE100A00B201909DF805202046611C18
:1030C000CCB24B490A549DF804202046611CCCB276
:1030D00047490A549FED480A2BEE800ABDEEC00A0C
:1030E00010EE100A00B201909DF805202046611CE8
:1030F000CCB23F490A549DF804202046611CCCB252
:103100003B490A549FED3C0A2CEE000ABDEEC00A72
:1031100010EE100A00B201909DF805202046611CB7
:10312000CCB233490A549DF804202046611CCCB22D
:103130002F490A54201FC8700026002005E02C49A2
:10314000095C3144CEB2411CC8B2A042F7DB204634
:10315000611CCCB226490E5421462548FFF752FE89
:1031600002B0BDEC0A8B70BDF8B505460E460024D2
:10317000AA222146641C1E4842542146641C425423
:1031800005222146641C425400222146641C4254FC
:1031900000959DF801202146641C42549DF80020B2
:1031A0002146641C425400969DF801202146641C6F
:1031B00042549DF800202146601CC4B20C48425481
:1031C000201F0B49C8700027002005E00849095C52
:1031D0003944CFB2411CC8B2A042F7DB2046611C83
:1031E000CCB203490F5421460148FFF70BFEF8BD4E
:1031F000B50A00200000C84200007A447FB50024D0
:10320000AA222146641CFE4842542146641C4254B2
:1032100006222146641C425400222146641C42546A
:103220009DF801202146641C42549DF8002021464F
:10323000641C42549DF805202146641C42549DF8AC
:1032400004202046611CCCB2ED490A549DF80920A7
:103250002046611CCCB2EA490A549DF80820204659
:10326000611CCCB2E6490A549DF80D202046611C31
:10327000CCB2E3490A549DF80C202146601CC4B22C
:10328000DF4842549DF821202046611CCCB2DC4925
:103290000A549DF820202046611CCCB2D8490A541B
:1032A0009DF825202046611CCCB2D5490A549DF8D2
:1032B00024202046611CCCB2D1490A549DF8292013
:1032C0002046611CCCB2CE490A549DF828202046E5
:1032D000611CCCB2CA490A549DF82D202046611CBD
:1032E000CCB2C7490A549DF82C202046611CCCB2B0
:1032F000C3490A54201FC8700025002005E0C049BA
:10330000095C2944CDB2411CC8B2A042F7DB20467B
:10331000611CCCB2BA490D542146B948FFF772FD81
:103320007FBD7FB50024AA222146641CB4484254C4
:103330002146641C425403222146641C425400224C
:103340002146641C42549DF801202146641C4254CD
:103350009DF800202146641C42549DF8052021461A
:10336000641C42549DF804202046611CCCB2A44940
:103370000A549DF809202046611CCCB2A0490A5489
:103380009DF808202046611CCCB29D490A549DF846
:103390000D202046611CCCB299490A549DF80C209E
:1033A0002046611CCCB296490A549DF82120204643
:1033B000611CCCB292490A549DF820202146601C21
:1033C000C4B28F4842549DF825202046611CCCB2DF
:1033D0008B490A549DF824202046611CCCB28849B0
:1033E0000A549DF829202046611CCCB284490A5415
:1033F0009DF828202046611CCCB281490A549DF8D2
:103400002D202046611CCCB27D490A549DF82C2009
:103410002046611CCCB27A490A549DF831202046DE
:10342000611CCCB276490A549DF830202046611CBC
:10343000CCB273490A549DF835202046611CCCB2A9
:103440006F490A549DF834202046611CCCB26C4967
:103450000A54201FC8700025002005E06849095C57
:103460002944CDB2411CC8B2A042F7DB2046611C02
:10347000CCB263490D5421466148FFF7C3FC7FBDC0
:1034800073B50024AA222146641C5D48425421469B
:10349000641C425407222146641C425400222146E7
:1034A000641C42549DF803202146641C42549DF83C
:1034B00002202146641C42549DF801202146641CD0
:1034C00042549DF800202046611CCCB24C490A545D
:1034D0009DF805202046611CCCB249490A549DF84C
:1034E00004202046611CCCB245490A54201FC870F4
:1034F0000025002005E04249095C2944CDB2411C69
:10350000C8B2A042F7DB2046611CCCB23C490D5446
:1035100021463B48FFF776FC7CBD2DE9F84F054678
:103520000E4617469846DDE90AAB0024AA2221463A
:10353000641C334842542146641C425402222146F2
:10354000641C425400222146641C425400959DF89C
:1035500001202146641C42549DF800202146641C31
:10356000425400969DF801202146641C42549DF867
:1035700000202146601CC4B22148425400979DF8A7
:1035800001202046611CCCB21D490A549DF8002040
:103590002046611CCCB21A490A54CDF800809DF82F
:1035A00001202046611CCCB215490A549DF8002028
:1035B0002046611CCCB212490A54CDF800A09DF8F7
:1035C00001202046611CCCB20D490A549DF8002010
:1035D0002046611CCCB20A490A54CDF800B09DF8CF
:1035E00001202146601CC4B2054842549DF80020C9
:1035F0002146601CC4B2024842540C98009001E07D
:10360000B50A00209DF801202046611CCCB2FE497D
:103610000A549DF800202046611CCCB2FA490A5495
:103620000D9800909DF801202046611CCCB2F6490F
:103630000A549DF800202046611CCCB2F2490A547D
:103640000E9800909DF801202046611CCCB2EE49F6
:103650000A549DF800202046611CCCB2EA490A5465
:10366000002000909DF801202046611CCCB2E64964
:103670000A549DF800202046611CCCB2E2490A544D
:10368000201FC8704FF00009002006E0DE49095CE9
:10369000494401F0FF09411CC8B2A042F6DB2046B4
:1036A000611CCCB2D84901F800902146D648FFF7FA
:1036B000A9FBBDE8F88F30B52DED048B81B0B0EEDD
:1036C000408AF0EE608AB0EE419AF0EE619A0024F2
:1036D000AA222146641CCC4842542146641C425410
:1036E000F1222146641C425400222146641C4254AB
:1036F000BDEEC80A10EE100A00B200909DF801203D
:103700002146641CC04842549DF800202146641C98
:103710004254BDEEE80A10EE100A00B200909DF887
:1037200001202146641CB84842549DF800202146DF
:10373000601CC4B2B4484254BDEEC90A10EE100A6F
:1037400000B200909DF801202046611CCCB2AE4929
:103750000A549DF800202046611CCCB2AA490A54A4
:10376000BDEEE90A10EE100A00B200909DF80120AB
:103770002046611CCCB2A4490A549DF80020204682
:10378000611CCCB2A0490A54002000909DF8012091
:103790002146601CC4B29C4842549DF8002020463B
:1037A000611CCCB298490A54201FC8700025002023
:1037B00005E09549095C2944CDB2411CC8B2A0423C
:1037C000F7DB2046611CCCB28F490D5421468E4850
:1037D000FFF718FB01B0BDEC048B30BD30B52DED0B
:1037E000048B81B0B0EE408AF0EE608AB0EE419A70
:1037F0000024AA222146641C834842542146641CAA
:1038000042540B222146641C425400222146641C6F
:1038100042549FED7E0A28EE000ABDEEC00A10EE6B
:10382000100A00B200909DF801202146641C7648E1
:1038300042549DF800202146641C42549FED730AB7
:1038400028EE800ABDEEC00A10EE100A00B2009009
:103850009DF801202146641C6B4842549DF80020CD
:103860002046611CCCB268490A549FED680A29EED3
:10387000000ABDEEC00A10EE100A00B200909DF8DA
:1038800001202046611CCCB25F490A549DF80020FB
:103890002046611CCCB25C490A54201FC870002528
:1038A000002005E05849095C2944CDB2411CC8B24A
:1038B000A042F7DB2046611CCCB253490D5421468F
:1038C0005148FFF79FFA01B0BDEC048B30BD2DE9E4
:1038D000F0432DED048B83B0B0EE408AF0EE608AA9
:1038E000B0EE419A05460E461746984600240196CA
:1038F000AA222146641C444842542146641C425476
:1039000001222146641C425400222146641C425478
:103910009FED3F0A28EE000ABDEEC00A10EE100A25
:1039200000B202909DF809202146641C364842549A
:103930009DF808202146641C42549FED350A28EE6C
:10394000800ABDEEC00A10EE100A00B202909DF887
:1039500009202146641C2C4842549DF8082020462A
:10396000611CCCB228490A549FED290A29EE000AAD
:10397000BDEEC00A10EE100A00B202909DF80920B8
:103980002046611CCCB220490A549DF808202046EC
:10399000611CCCB21C490A5402959DF809202046AE
:1039A000611CCCB218490A549DF808202046611CBD
:1039B000CCB215490A549DF807202046611CCCB2B0
:1039C00011490A549DF806202046611CCCB20E49CC
:1039D0000A549DF805202046611CCCB20A490A54BD
:1039E0009DF804202046611CCCB207490A542046A9
:1039F000611CCCB204490F542046611CCCB2024970
:103A000001F80080201F05E0B50A0020CDCCCC3D98
:103A10000000C842C8704FF00009002006E0FE49CF
:103A2000095C494401F0FF09411CC8B2A042F6DB21
:103A30002046611CCCB2F84901F800902146F648B6
:103A4000FFF7E0F903B0BDEC048BBDE8F0837FB570
:103A500005460024AA222146641CEF484254214610
:103A6000641C425400222146641C42542146641CBA
:103A700042542146641C45549DF805202146641C8F
:103A800042549DF804202146641C42549DF80920AC
:103A90002046611CCCB2E0490A549DF8082020461B
:103AA000611CCCB2DC490A549DF80D202046611CF3
:103AB000CCB2D9490A549DF80C202046611CCCB2E6
:103AC000D5490A549DF821202046611CCCB2D24928
:103AD0000A549DF820202046611CCCB2CE490A54DD
:103AE000201FC8700026002005E0CB49095C314446
:103AF000CEB2411CC8B2A042F7DB2046611CCCB25A
:103B0000C5490E542146C448FFF77CF97FBD10B566
:103B100086B0C2480078C249097890FBF1F201FBF7
:103B20001201BF480078401E814202D10120BD49E8
:103B30008870BA480078BC49097890FBF1F201FB23
:103B40001201B9480078401E814202D10120B549D6
:103B5000C870B2480078B549097890FBF1F201FBD2
:103B60001201B2480078801E814202D10120AD4985
:103B70008873AA480078AE49097890FBF1F201FBFE
:103B80001201AB480078401E814202D10120A549B4
:103B90004870A2480078A749097890FBF1F201FB30
:103BA0001201A4480078401E814202D101209D49A3
:103BB00088729A480078A049097890FBF1F201FBDD
:103BC00012019D480078801E814202D10120954952
:103BD0000873924800789949097890FBF1F201FB4B
:103BE000120196480078801E814202D101208D4941
:103BF00048738A4800789249097890FBF1F201FBFA
:103C000012018F480078C01E814202D101208549EF
:103C1000C873824800788B49097890FBF1F201FB68
:103C2000120188480078C01E814204D17D48007C82
:103C3000401C7C49087479480078401CC0B2774920
:103C40000870C82801DD002008707648007860B14F
:103C50000020744908704FF4C87364224FF49671C1
:103C600000900420FFF7F3FE18E26E484078B0B1F0
:103C700000206C4948707448037874480278002129
:103C80007348008800B2734C94ED001A724CD4ED66
:103C9000000A724C94ED000AFFF719FEFEE161483C
:103CA000C07B60B100205F49C8736D4890ED001A79
:103CB000DFED6C0A9FED6B0AFFF790FDEEE15948CE
:103CC000807B88B10020574988736748D0ED001A7F
:103CD000664890ED001A6648D0ED000A654890ED00
:103CE000000AFFF7E8FCD9E14E488078E8B30020ED
:103CF0004C498870604890ED0A0ABDEEC00A10EE8B
:103D0000100A01B25C4890ED090ABDEEC00A10EE3F
:103D1000100A02B2584890ED080ABDEEC00A10EE33
:103D2000100A00B2554B93ED090ABDEEC00A10EE21
:103D3000103A1BB2CDE90130CDE903214F4890ED97
:103D4000080ABDEEC00A10EE100A00B24B4C0090FB
:103D500094ED070ABDEEC00A10EE104A23B2474C9C
:103D600094ED060ABDEEC00A00E015E010EE104A20
:103D700022B2424C94ED050ABDEEC00A10EE104A84
:103D800021B23E4C94ED040ABDEEC00A10EE104A7A
:103D900020B2FFF7C2FB81E12248C07840B1002089
:103DA0002049C8702A4801880020FFF769FB75E1A7
:103DB0001C48807A70B300201A49887240F2DC52A5
:103DC0002F48C08900F2DC5080B22D49898901F268
:103DD000DC5189B2CDE9030229480592029140895C
:103DE00000F2DC5080B22649098901F2DC5189B227
:103DF000234CCDE90010648804F2DC54A3B2204CBB
:103E0000248804F2DC54A2B21D4CE48804F2DC5491
:103E1000A1B237E03EE00000B50A0020C604002051
:103E2000C7040020A40A0020C8040020C904002000
:103E3000CA040020CB040020CC040020CD040020C4
:103E4000CE040020CF040020B0040020B5040020E0
:103E50003C0600203C0000203800002034000020F8
:103E600084050020000000007C050020780500206B
:103E70007405002070050020E8050020080C0020D3
:103E8000F4090020FD4CA48804F2DC54A0B2FFF732
:103E900048FA03E1FA48007B48B30020F849087368
:103EA000009001900290F74C039094ED030ABCEE51
:103EB000C00A10EE104AA3B2F24C94ED020ABCEE16
:103EC000C00A10EE104AA2B2EE4C94ED010ABCEE0C
:103ED000C00A10EE104AA1B2EA4C94ED000ABCEE02
:103EE000C00A10EE104AA0B2FFF788F9D6E0E44805
:103EF000407B40B10020E24948734FF4E4717B20DD
:103F0000FFF732F9CAE0DE48007958B30020DC49F7
:103F10000871DD48D0ED1E4AB0EE644AD0ED1F4A6C
:103F2000F0EE643AD0ED1D4AB0EE643AD0ED1A4A94
:103F3000F0EE642AD0ED1B4AB0EE642AD0ED194AA7
:103F4000F0EE641AD0ED164AB0EE641AD0ED174ABE
:103F5000F0EE640AD0ED154AB0EE640A0120FEF7D7
:103F6000EAFF9BE0C648407958B30020C449487135
:103F7000C648D0ED1E4AB0EE644AD0ED1F4AF0EEBE
:103F8000643AD0ED1D4AB0EE643AD0ED1A4AF0EE34
:103F9000642AD0ED1B4AB0EE642AD0ED194AF0EE47
:103FA000641AD0ED164AB0EE641AD0ED174AF0EE5E
:103FB000640AD0ED154AB0EE640A0220FEF7BBFF9A
:103FC0006CE0AF48807958B30020AD498871B048A3
:103FD000D0ED214AB0EE644AD0ED224AF0EE643AC8
:103FE000D0ED204AB0EE643AD0ED1D4AF0EE642ADE
:103FF000D0ED1E4AB0EE642AD0ED1C4AF0EE641AF1
:10400000D0ED194AB0EE641AD0ED1A4AF0EE640A07
:10401000D0ED184AB0EE640A0320FEF78CFF3DE0B5
:104020009748C07958B300209549C8719948D0ED98
:10403000084AB0EE644AD0ED074AF0EE643AD0ED9B
:10404000064AB0EE643AD0ED054AF0EE642AD0EDAF
:10405000044AB0EE642AD0ED034AF0EE641AD0EDC3
:10406000024AB0EE641AD0ED014AF0EE640AD0EDD7
:10407000004AB0EE640A0420FEF75DFF0EE08048BF
:10408000007C02280AD100207D4908741FED8B0AAC
:1040900000231A4619461846FEF7BCFE06B010BDAE
:1040A00070B504460D46AA207B4908704870EF2081
:1040B00088700220C87008460471457100260020EF
:1040C00005E07549095C3144CEB2411CC8B20628EE
:1040D000F7DB714886710721FEF794FE70BD70B55D
:1040E0002DED048B04460D460026002004E0215CE3
:1040F0003144CEB2411CC8B2691E8142F7DC60195E
:1041000010F8010CB04202D0BDEC048B70BD2078D9
:10411000AA2802D16078AF2800D0F5E7A07801285E
:1041200022D12079012802D15C4908701CE0207955
:10413000022803D101205949487015E0207903284D
:1041400004D101205549087048700DE020790428F9
:1041500003D101205249087006E02079212802DBB2
:104160002079262800DD00BFA078022814D120790C
:10417000012806D14249087148718871C8710872D6
:1041800048722079A02802D101203D490870207989
:10419000A12801D1FCF7EDF9A078032839D101203D
:1041A0004049087040480078022802D00220FEF7FB
:1041B0000FFE2079617941EA00203C498880A0798E
:1041C000E17941EA00203949C880207A617A41EAE0
:1041D000002036490880A07AE17A41EA002033497C
:1041E0004880207B617B41EA002030490881A07B28
:1041F000E17B41EA00202D494881207C617C41EA35
:1042000000202A498881A07CE17C41EA00202749DE
:10421000C881A078042827D12079012805D1002061
:10422000234908701F4908701EE0207902280ED12A
:1042300000201C4908704FF67060104988800020EB
:1042400008804880C8800120194908700CE0207956
:10425000032803D101201749087005E020790428BC
:1042600002D1022013490870A078052841D1207995
:10427000012823D1104908703BE00000F409002018
:10428000A40A0020640900209007002054080020A0
:10429000D006002090060020B50A0020080C00205F
:1042A000150600208005002078040020E80A002080
:1042B000B0040020B404002000050020207902286A
:1042C00003D10120FE49087013E02079032803D1AF
:1042D0000120FC4908700CE02079042803D1022059
:1042E000F749087005E02079052802D10320F44938
:1042F0000870A078062828D12079000200B26179E0
:104300000843F14908800846B0F9000040F24C41EA
:10431000884205D1EC480088283000B2EA4908807C
:10432000A079000200B2E1790843E8490880207AC8
:10433000000200B2617A0843E5490880A07A0002D1
:1043400000B2E17A0843E3490880A07810287DD1C3
:104350002179090209B2627941EA020008F043FFBB
:1043600041EC190B9FEDDC0B53EC102B08F0C9FE50
:1043700041EC180B08F08CFFD9494865A179090276
:1043800009B2E27941EA020008F02DFF41EC190B75
:104390009FEDD10B53EC102B08F0B3FE41EC180B42
:1043A00008F076FFCE49C865217A090209B2627A1F
:1043B00041EA020008F017FF41EC190B9FEDC60B14
:1043C00053EC102B08F09DFE41EC180B08F060FF39
:1043D000C3498865A17A090209B2E27A41EA02007A
:1043E00008F001FF41EC190B9FEDBB0B53EC102BB8
:1043F00008F087FE41EC180B08F04AFFB849486600
:10440000217B090209B2627B41EA020008F0EBFE5F
:1044100041EC190B9FEDB00B53EC102B08F071FE23
:1044200041EC180B08F034FF0146AD48C166A17B92
:10443000090209B2E27B41EA020008F0D4FE41EC35
:10444000190B9FEDA50B53EC102B00E055E008F085
:1044500058FE41EC180B08F01BFF0146A04881668E
:10446000217C090209B2627C41EA020008F0BBFE2D
:1044700041EC190B9FED980B53EC102B08F041FE0B
:1044800041EC180B08F004FF95494867A17C09022C
:1044900009B2E27C41EA020008F0A5FE41EC190BEA
:1044A0009FED8D0B53EC102B08F02BFE41EC180BFD
:1044B00008F0EEFE01468A48C167217D090209B273
:1044C000627D41EA020008F08EFE41EC190B9FED7F
:1044D000820B53EC102B08F014FE41EC180B08F083
:1044E000D7FE01467E488167A0783146FFF7D8FDA8
:1044F000FCF737F801207B490880A07811287DD18E
:104500002179090209B2627941EA020008F06BFEE2
:1045100041EC190B9FED700B53EC102B08F0F1FDE3
:1045200041EC180B08F0B4FE6F494865A179090207
:1045300009B2E27941EA020008F055FE41EC190B9C
:104540009FED650B53EC102B08F0DBFD41EC180BD5
:1045500008F09EFE6449C865217A090209B2627AB0
:1045600041EA020008F03FFE41EC190B9FED5A0BA7
:1045700053EC102B08F0C5FD41EC180B08F088FE39
:1045800059498865A17A090209B2E27A41EA020032
:1045900008F029FE41EC190B9FED4F0B53EC102B4B
:1045A00008F0AFFD41EC180B08F072FE4E4948666A
:1045B000217B090209B2627B41EA020008F013FE86
:1045C00041EC190B9FED440B53EC102B08F099FDB7
:1045D00041EC180B08F05CFE01464348C166A17B24
:1045E000090209B2E27B41EA020008F0FCFD41EC5D
:1045F000190B9FED390B53EC102B00E055E008F040
:1046000080FD41EC180B08F043FE014636488166F8
:10461000217C090209B2627C41EA020008F0E3FD54
:1046200041EC190B9FED2C0B53EC102B08F069FD9E
:1046300041EC180B08F02CFE2B494867A17C0902BD
:1046400009B2E27C41EA020008F0CDFD41EC190B11
:104650009FED210B53EC102B08F053FD41EC180B90
:1046600008F016FE01462048C167217D090209B203
:10467000627D41EA020008F0B6FD41EC190B9FEDA6
:10468000160B53EC102B08F03CFD41EC180B08F016
:10469000FFFD014614488167A0783146FFF700FD11
:1046A000FBF75FFF01200F490880A07812287CD11A
:1046B0002179090209B2627941EA020016E000009C
:1046C00001050020030500200A0500200C0500203C
:1046D0000605002008050020FCA9F1D24D62503FDC
:1046E00090070020C40400205408002008F07BFD3F
:1046F00041EC190B1FED080B53EC102B08F001FDDA
:1047000041EC180B08F0C4FDA1490866A179090223
:1047100009B2E27941EA020008F065FD41EC190BAB
:104720001FED130B53EC102B08F0EBFC41EC180BB6
:1047300008F0AEFD96498866217A090209B2627ACC
:1047400041EA020008F04FFD41EC190B1FED1E0B72
:1047500053EC102B08F0D5FC41EC180B08F098FD39
:104760008B494866A17A090209B2E27A41EA02005D
:1047700008F039FD41EC190B1FED290B53EC102B00
:1047800008F0BFFC41EC180B08F082FD8049086777
:10479000217B090209B2627B41EA020008F023FD95
:1047A00041EC190B1FED340B00E06DE053EC102BC6
:1047B00008F0A7FC41EC180B08F06AFD7449886703
:1047C000A17B090209B2E27B41EA020008F00BFD7D
:1047D00041EC190B1FED400B53EC102B08F091FC32
:1047E00041EC180B08F054FD69494867217C090227
:1047F00009B2627C41EA020008F0F5FC41EC190BB9
:104800001FED4B0B53EC102B08F07BFC41EC180B0D
:1048100008F03EFD5E49C1F88000A17C090209B2A2
:10482000E27C41EA020008F0DEFC41EC190B1FEDCE
:10483000560B53EC102B08F064FC41EC180B08F0FD
:1048400027FD5349C1F88800217D090209B2627D24
:1048500041EA020008F0C7FC41EC190B1FED620BA6
:1048600053EC102B08F04DFC41EC180B08F010FD38
:104870004749C1F88400A0783146FFF711FCFBF7E7
:1048800070FE012043490880A078132803D1A07846
:104890003146FFF705FCA078142803D1A0783146F3
:1048A000FFF7FEFBA078152803D1A0783146FFF76B
:1048B000F7FB00BF28E410B504463748007838B944
:1048C000AA2C05D1012034490870344804705DE0F9
:1048D00031480078012807D1AF2C05D102202E499C
:1048E00008702E48447051E02B480078022807D108
:1048F000F12C05DA0320284908702848847045E027
:104900002548007803280CD1322C0ADA04202249E9
:1049100008702248C47022480470002021490870A1
:1049200034E01D480078042819D11D48007800287B
:1049300015DD1B480078401E194908701948007899
:1049400018490978491C174A1170001D13490C5465
:1049500013480078D0B905200F49087016E00E48BA
:10496000007805280FD100200B4908700D48007809
:10497000001D0A490C540B480078401DC1B207487D
:10498000FFF7ADFB02E000200349087010BD0000F6
:10499000D0060020C4040020D2040020F80A002021
:1049A000D0040020D104002030B504460846158804
:1049B0006D1CADB21580854204DD002515800125F2
:1049C000558007E01588854201D1002501E0158852
:1049D0006D1C5580158804EB850585ED000A55880A
:1049E00004EB8505D5ED000A30EE601A00EE900A62
:1049F000F8EE601AC1EE210A93ED001A70EE810AFA
:104A0000C3ED000A30BD70B58BB0F0EE400A02284D
:104A100001DA0B2903DB9FED7B0A0BB070BD7A4CEA
:104A2000245C641CE4B2784D2C548C4201DB0024DD
:104A30002C5400EB400404EBC004744D05EB8404DB
:104A4000714D2D5C04EB8504C4ED000A002211E0D9
:104A500000EB400404EBC0046C4D05EB840404EB54
:104A6000820494ED000A6C4604EB820484ED000A93
:104A7000541CE2B28A42EBDB00222DE0002325E049
:104A80006C4604EB830494ED000A6D465C1C05EB58
:104A90008404D4ED001AB4EEE10AF1EE10FA13DD4D
:104AA0006C4604EB830494ED001A5C1C05EB840453
:104AB00094ED000A6C4604EB830484ED000A5C1C50
:104AC00005EB840484ED001A5C1CE3B24C1EA41AAE
:104AD0009C42D5DC541CE2B24C1E9442CEDC0C4607
:104AE00001EBD4756D106E4606EB850595ED000A59
:104AF00093E770B52DED028B04460D461646D4EDB6
:104B0000020AB0EE600AFDF7C5FCF0EE408AD4ED73
:104B1000010AB0EE600AFDF7BDFC38EE800AB0EE87
:104B2000408AFDF7BCFC3A4880ED000AD4ED020A49
:104B3000B0EE600AFDF7AEFCF0EE408AD4ED000A5C
:104B4000B0EE600AFDF7A6FC38EE800AB0EE408AAF
:104B5000FDF7A5FC2F4880ED000A94ED020AB5EEA2
:104B6000C00AF1EE10FA02D24FF0FF3000E001204F
:104B70002949087095ED000A2548D0ED000A20EE7D
:104B8000200A94ED001A084690F9000000EE900A01
:104B9000F8EEE00A61EE200A95ED021A00EEC10A75
:104BA00086ED000A084690F9000000EE100AB8EE03
:104BB000C00A1848D0ED000A20EE200AD5ED010AFF
:104BC00020EE200AD4ED010A95ED021A00EEC10A8A
:104BD00086ED010A94ED000AD5ED000A20EE200AC8
:104BE000D4ED010A95ED011A00EE810AD4ED020A16
:104BF00095ED021A00EE810A86ED020ABDEC028BE9
:104C000070BD000000000000DC0400202C0B002020
:104C1000E0040020E4040020DE040020B54890ED0C
:104C2000180AF7EE000A20EE200AB34880ED000AC9
:104C3000B04890ED1A0AF7EE000A20EE200AAE48BE
:104C400080ED010AAB4890ED190AF7EE000A20EE5C
:104C5000200AA94880ED020A704710B5A7480078DD
:104C6000D8B1A7480088B0F5167F10DA0120FEF70A
:104C7000AFF8A4480088A4490880A4480088488068
:104C8000A34800888880A3480088C88005E00020E9
:104C90009A4908700120A049087010BD10B52DED8B
:104CA000028BB0EE408A9D48007801283CD100205C
:104CB000924908709849087091480088B0F5C87FFB
:104CC0000FDD8F4800888000072190FBF1F040F253
:104CD0008661081A9249B1F90010401A914908609A
:104CE0001BE040F241608F4908608F480068401C1B
:104CF0008D4908600868C11700EB91718910A0EB1D
:104D00008101894A11601046006830B9002083494A
:104D1000087086490870864908700120FEF758F827
:104D200080480088784988807C480078022812D121
:104D30009FED800A804880ED000A80480078401C82
:104D40007E490870084600781E2804D10020774963
:104D500008707749087071480078032851D170486D
:104D6000B0F900006FF00901081A00EE100AB8EE61
:104D7000C00A734880ED000A5F4890ED000A704851
:104D8000D0ED000A20EE200A6E4880ED000A5A4855
:104D9000D0ED010A6A4890ED001A6B4890ED000AC8
:104DA00000EE810A80ED000A534890ED020A644843
:104DB000D0ED000A654890ED001A70EEC10A20EEB1
:104DC000200A634880ED000A5E4890ED000A5E48C4
:104DD000D0ED000A30EE200A5D48D0ED000A30EE3A
:104DE000200A5C4880ED000A90ED000A38EE000AC7
:104DF000594880ED000A524890ED000A534880ED72
:104E0000000ABDEC028B10BD5448B0F9040000F25A
:104E1000DC505349086070473948008840F2AA5175
:104E200088421DDD01203D4908700020334908708B
:104E3000394908704B480088401C4A490880084698
:104E40000088142190FBF1F201FB12004549088013
:104E50000846008820B90020344908703449087099
:104E6000414890ED000AB5EEC00AF1EE10FA02DDFD
:104E700090ED000A04E03C4890ED000AB1EE400AD3
:104E8000DFED3A0AB4EEE00AF1EE10FA16DC38482B
:104E900090ED000AB5EEC00AF1EE10FA02DD90EDD9
:104EA000000A04E0324890ED000AB1EE400ADFED5E
:104EB0002F0AB4EEE00AF1EE10FA04DD00201B49DF
:104EC00008701B4908701A48007828B90B48007808
:104ED00010B91148007840B11148008840B9254800
:104EE0000078401C2349087002E000202149087026
:104EF00070470000D006002040050020000500207B
:104F00003C06002006050020F80B002008050020C4
:104F10000A0500200C0500200205002001050020E4
:104F200040060020E8040020F4040020B004002023
:104F3000800500200000964358050020130500203E
:104F40001C05002020050020240500202C05002041
:104F500028050020300500204C050020F409002021
:104F6000EC04002016050020380000200000484214
:104F70003400002018050020874890ED1C0AF7EE49
:104F8000000A20EE200A854880ED000A824890ED54
:104F90001D0AF7EE000A20EE200A804880ED010A83
:104FA0007D4890ED1E0AF7EE000A20EE200A7B48AD
:104FB00080ED020A704730EE601A80ED031A90ED22
:104FC000061AD0ED031A31EE211A80ED061A90ED83
:104FD000061ADFED731AB4EEE11AF1EE10FA02D2FE
:104FE0009FED6F1A0DE090ED061ADFED6E1AB4EE2C
:104FF000E11AF1EE10FA02DD9FED6A1A01E090ED80
:10500000061A80ED061A90ED001AD0ED031A21EE73
:10501000211AD0ED021A90ED062A01EE821A90EDC7
:10502000012A6149B1F90010494201EE901AF8EEE7
:10503000E11A02EE211A80ED071A90ED001AD0ED68
:10504000031A21EE211A594981ED001A90ED021A36
:10505000D0ED061A21EE211A554981ED001AD0ED46
:10506000011A5149B1F90010494201EE101AB8EE87
:10507000C11A21EE811A4F4981ED001A90ED071AED
:105080004D4981ED001A90ED031A80ED041A704726
:1050900000B5B0EE403AF0EE602A484800780028AB
:1050A00079D04748008800EE100AB8EE400A45481B
:1050B00080ED000A3C48B0F90000C8280EDD4048E9
:1050C00000883949B1F90010401AC83000EE100AC2
:1050D000B8EEC00A3B4880ED000A13E03248B0F950
:1050E000000010F1C80F0DDA354800882E49B1F9DB
:1050F0000010401AC83800EE100AB8EEC00A314855
:1051000080ED000A304890ED000ADFED300AB4EE81
:10511000E00AF1EE10FA03DD9FED2C0A80ED000AA3
:105120002848D0ED000A284890ED000A1B48FFF7F8
:1051300042FF1A4890ED070A30EE220A244880ED1B
:10514000000A90ED000A234880ED000A1A4890ED0D
:10515000000ABDEEC00A10EE100A00B21E49C88156
:10516000124890ED000ABDEEC00A10EE100A00B21F
:1051700008810F4890ED000ABDEEC00A10EE100A3B
:1051800000B248810B4890ED000ABDEEC00A10EE57
:10519000100A00B2888100BDD0060020980B0020C4
:1051A00000803BC500803B45400600207005002084
:1051B00074050020780500207C0500208005002073
:1051C0003C06002068050020580500200000964499
:1051D000640500204C050020F40900200EB50121D3
:1051E000084603F0BBFA4FF0804003F013FD4FF484
:1051F0007A7001905320ADF800000020ADF808004F
:10520000ADF8020069464FF0804003F0DFFD012158
:10521000880706F0C1F801221146900705F0B2FF99
:105220000121880704F06CF90021012003F096FAAF
:105230000EBD08B51C208DF8000002208DF801007D
:1052400000208DF8020001208DF80300684602F06E
:10525000BCF808BD10B5FFF7C1FFFFF7EAFF012159
:10526000084603F07BFA10BD7FB5684603F094F85A
:105270004FF47A710198B0FBF1F4E4082146B1F1E2
:10528000807F00D31DE021F07F40401E4FF0E022E0
:10529000506150170F22002807DA13071E0E664BC5
:1052A00000F00F052D1F5E5503E013071D0E634B25
:1052B0001D5400BF00204FF0E022906107201061D4
:1052C00000BF6FF0040002F017F97FBD5C4A11685F
:1052D0004FF0E02252694FF0E0239B69D21A4FF45D
:1052E0007A735A434FF0E0235B69B2FBF3F201EBB0
:1052F0004103C3EBC11302EBC300704730B5044652
:10530000FFF7E4FF054600BFFFF7E0FF401BA042A8
:10531000FAD330BD10B5044603E04FF47A70FFF7BE
:10532000EDFF2000A4F10104F7D110BD10B54548F0
:10533000007800B910BD4448006840F2E731884267
:1053400007DA41480068401C3F490860FAF756FFF9
:1053500029E000203C4908603C4800683B2805DA09
:105360003A480068401C394908601CE00020374971
:105370000860374800683B2805DA35480068401C5B
:10538000334908600FE00020314908603148006867
:10539000172805DA2F480068401C2E49086002E0F3
:1053A00000202C49086000BFC4E710B5044604EB98
:1053B0004400294901EB800090ED000A04EB440011
:1053C00001EB800080ED010AFFF780FF00EE100A7C
:1053D000B8EE400ADFED210A80EE201A04EB44000B
:1053E0001D4901EB800080ED001A04EB440001EB45
:1053F000800090ED000A04EB440001EB8000D0ED4A
:10540000010A30EE600A04EB440001EB800080EDFD
:10541000020A04EB440001EB800090ED020A10BD8B
:1054200010B5002404E02046FFF7BFFF601CC4B2A3
:10543000052CF8DB10BD000018ED00E000E400E0F2
:105440009005002000000020A00500209C05002001
:105450009805002094050020BC0B0020002474490E
:1054600000B587B00121062003F078F901210E2054
:1054700003F0AEF81D208DF8040001208DF8050022
:105480008DF806008DF8070001A801F09EFF1E2090
:105490008DF8040001208DF805008DF806008DF8C8
:1054A000070001A801F091FFC020059002208DF8AF
:1054B000180003208DF8190000208DF81A00022032
:1054C0008DF81B0005A9FB4802F0E8F803200590C1
:1054D00002208DF8180003208DF8190000208DF8A7
:1054E0001A0002208DF81B0005A9F34802F0D6F837
:1054F00002220621EF4802F00EFC02220721ED48AD
:1055000002F009FC02220021EB4802F004FC022216
:105510000121E94802F0FFFB5320E8490880002000
:10552000ADF808000A20ADF80A000120ADF80C0023
:105530000020ADF80E00ADF8100002A9DF482838B1
:1055400005F04EFB0420ADF808000A20ADF80A0073
:105550000120ADF80C000020ADF80E00ADF81000F1
:1055600002A9D648283805F03BFB0820ADF8080012
:105570000A20ADF80A000120ADF80C000020ADF8BB
:105580000E00ADF8100002A9CC48283805F028FB21
:105590000C20ADF808000A20ADF80A000120ADF893
:1055A0000C000020ADF80E00ADF8100002A9C348B1
:1055B000283805F015FB0121C048283803F0A0FF6A
:1055C00001220221BD48283805F0DCFD012204211A
:1055D000BA48283805F0D6FD01220821B7482838F6
:1055E00005F0D0FD01221021B448283805F0CAFD8D
:1055F0004FF47040059002208DF8180003208DF8BC
:10560000190000208DF81A0002208DF81B0005A952
:10561000AB4802F043F802220C21A94802F07BFBC0
:1056200002220D21A64802F076FB02220E21A44898
:1056300002F071FB02220F21A14802F06CFB532003
:10564000A04908800020ADF808000A20ADF80A0043
:105650000120ADF80C000020ADF80E00ADF81000F0
:1056600002A99848283805F0BBFA0420ADF80800D4
:105670000A20ADF80A000120ADF80C000020ADF8BA
:105680000E00ADF8100002A98E48283805F0A8FADF
:105690000820ADF808000A20ADF80A000120ADF896
:1056A0000C000020ADF80E00ADF8100002A98548EE
:1056B000283805F095FA0C20ADF808000A20ADF85E
:1056C0000A000120ADF80C000020ADF80E00ADF886
:1056D000100002A97B48283805F082FA0121794898
:1056E000283803F00DFF012202217648283805F002
:1056F00049FD012204217348283805F043FD0122A9
:1057000008217048283805F03DFD012210216D4820
:10571000283805F037FD07B000BD10B50120FDF7B2
:1057200057FB66481838008800F0020038B34FF67F
:10573000FD706249183908804FF6FF5008805D48B7
:105740001030006800F0400030B15C48283805F0A7
:10575000AAFB5D4908801EE05848283805F0A3FBE5
:105760005A4908800846008857490988884207DB5B
:105770005648008854490988401A554908800AE06B
:10578000514800884FF6FF71081A504909880844AB
:10579000401C4F49088049481838008800F0040030
:1057A00038B34FF6FB704549183908804FF6FF3083
:1057B000088040481030006800F0800030B13F4859
:1057C000283805F09EFB434908801EE03B482838F6
:1057D00005F097FB40490880084600883D49098844
:1057E000884207DB3C4800883A490988401A384912
:1057F00048800AE0374800884FF6FF71081A36499A
:1058000009880844401C324948802C4818380088D0
:1058100000F0080038B34FF6F770284918390880AF
:105820004FF2FF70088024481030006800F001003B
:1058300030B12248283805F086FB284908801EE050
:105840001E48283805F07FFB254908800846008857
:1058500022490988884207DB214800881F490988B6
:10586000401A1B4988800AE01C4800884FF6FF71E7
:10587000081A1B4909880844401C154988800F48AC
:105880001838008800F0100070B34FF6EF700B4925
:10589000183908804EF6FF700880074810300068FD
:1058A00000F0020008B30548283805F068FB0D49F0
:1058B000088038E00008024000040240280400404C
:1058C000000C024028080040A4050020A605002086
:1058D000F80B0020A8050020AA050020AC05002038
:1058E000AE050020B00500201DE0804805F047FB14
:1058F0007F490880084600887E490988884207DB7E
:105900007B4800887B490988401A7B49C8800AE0A7
:10591000784800884FF6FF71081A754909880844CD
:10592000401C7549C88010BD10B50120FDF750FA24
:105930007248008800F0020028B34FF6FD706F49EE
:1059400008804FF6FF5008806D48006800F48050D2
:1059500030B16A48103805F0A6FA6A4908801EE09E
:105960006648103805F09FFA6749088008460088A5
:1059700064490988884207DB6348008861490988CF
:10598000401A5D4908810AE05E4800884FF6FF71C1
:10599000081A5D4909880844401C5749088157483E
:1059A000008800F0040028B34FF6FB7053490880CC
:1059B0004FF6FF3008805248006800F4005030B1C4
:1059C0004E48103805F09DFA504908801EE04B48BB
:1059D000103805F096FA4E490880084600884B4971
:1059E0000988884207DB4A48008848490988401AE4
:1059F000414948810AE0454800884FF6FF71081A7E
:105A0000434909880844401C3B4948813B48008879
:105A100000F0080028B34FF6F770384908804FF2BD
:105A2000FF7008803648006800F4804030B1334889
:105A3000103805F088FA374908801EE02F481038E2
:105A400005F081FA34490880084600883149098800
:105A5000884207DB304800882E490988401A2649C9
:105A600088810AE02B4800884FF6FF71081A2A49FE
:105A700009880844401C204988812048008800F09B
:105A8000100028B34FF6EF701C4908804EF6FF70E7
:105A900008801B48006800F4004030B117481038F7
:105AA00005F06DFA1D4908801EE01448103805F015
:105AB00066FA1B4908800846008818490988884208
:105AC00007DB1748008815490988401A0A49C88128
:105AD0000AE0124800884FF6FF71081A1049098839
